{
  "_format": "hh-sol-artifact-1",
  "contractName": "IdentityContract",
  "sourceName": "src/IdentityContract.sol",
  "abi": [
    {
      "inputs": [],
      "stateMutability": "nonpayable",
      "type": "constructor"
    },
    {
      "inputs": [
        {
          "internalType": "address",
          "name": "owner",
          "type": "address"
        }
      ],
      "name": "OwnableInvalidOwner",
      "type": "error"
    },
    {
      "inputs": [
        {
          "internalType": "address",
          "name": "account",
          "type": "address"
        }
      ],
      "name": "OwnableUnauthorizedAccount",
      "type": "error"
    },
    {
      "anonymous": false,
      "inputs": [
        {
          "indexed": true,
          "internalType": "uint256",
          "name": "agentId",
          "type": "uint256"
        },
        {
          "indexed": true,
          "internalType": "address",
          "name": "owner",
          "type": "address"
        },
        {
          "indexed": false,
          "internalType": "string",
          "name": "name",
          "type": "string"
        }
      ],
      "name": "AgentRegistered",
      "type": "event"
    },
    {
      "anonymous": false,
      "inputs": [
        {
          "indexed": true,
          "internalType": "address",
          "name": "previousOwner",
          "type": "address"
        },
        {
          "indexed": true,
          "internalType": "address",
          "name": "newOwner",
          "type": "address"
        }
      ],
      "name": "OwnershipTransferred",
      "type": "event"
    },
    {
      "anonymous": false,
      "inputs": [
        {
          "indexed": true,
          "internalType": "uint256",
          "name": "agentId",
          "type": "uint256"
        },
        {
          "indexed": false,
          "internalType": "uint256",
          "name": "newReputation",
          "type": "uint256"
        }
      ],
      "name": "ReputationUpdated",
      "type": "event"
    },
    {
      "inputs": [
        {
          "internalType": "uint256",
          "name": "",
          "type": "uint256"
        }
      ],
      "name": "agents",
      "outputs": [
        {
          "internalType": "uint256",
          "name": "agentId",
          "type": "uint256"
        },
        {
          "internalType": "address",
          "name": "owner",
          "type": "address"
        },
        {
          "internalType": "string",
          "name": "name",
          "type": "string"
        },
        {
          "internalType": "string",
          "name": "description",
          "type": "string"
        },
        {
          "internalType": "uint256",
          "name": "reputation",
          "type": "uint256"
        },
        {
          "internalType": "uint256",
          "name": "createdAt",
          "type": "uint256"
        }
      ],
      "stateMutability": "view",
      "type": "function"
    },
    {
      "inputs": [
        {
          "internalType": "uint256",
          "name": "agentId",
          "type": "uint256"
        }
      ],
      "name": "getAgent",
      "outputs": [
        {
          "components": [
            {
              "internalType": "uint256",
              "name": "agentId",
              "type": "uint256"
            },
            {
              "internalType": "address",
              "name": "owner",
              "type": "address"
            },
            {
              "internalType": "string",
              "name": "name",
              "type": "string"
            },
            {
              "internalType": "string",
              "name": "description",
              "type": "string"
            },
            {
              "internalType": "uint256",
              "name": "reputation",
              "type": "uint256"
            },
            {
              "internalType": "uint256",
              "name": "createdAt",
              "type": "uint256"
            }
          ],
          "internalType": "struct IdentityContract.Agent",
          "name": "",
          "type": "tuple"
        }
      ],
      "stateMutability": "view",
      "type": "function"
    },
    {
      "inputs": [
        {
          "internalType": "address",
          "name": "agentOwner",
          "type": "address"
        }
      ],
      "name": "getAgentIdByOwner",
      "outputs": [
        {
          "internalType": "uint256",
          "name": "",
          "type": "uint256"
        }
      ],
      "stateMutability": "view",
      "type": "function"
    },
    {
      "inputs": [
        {
          "internalType": "uint256",
          "name": "agentId",
          "type": "uint256"
        }
      ],
      "name": "getReputation",
      "outputs": [
        {
          "internalType": "uint256",
          "name": "",
          "type": "uint256"
        }
      ],
      "stateMutability": "view",
      "type": "function"
    },
    {
      "inputs": [],
      "name": "nextAgentId",
      "outputs": [
        {
          "internalType": "uint256",
          "name": "",
          "type": "uint256"
        }
      ],
      "stateMutability": "view",
      "type": "function"
    },
    {
      "inputs": [],
      "name": "owner",
      "outputs": [
        {
          "internalType": "address",
          "name": "",
          "type": "address"
        }
      ],
      "stateMutability": "view",
      "type": "function"
    },
    {
      "inputs": [
        {
          "internalType": "address",
          "name": "",
          "type": "address"
        }
      ],
      "name": "ownerToAgentId",
      "outputs": [
        {
          "internalType": "uint256",
          "name": "",
          "type": "uint256"
        }
      ],
      "stateMutability": "view",
      "type": "function"
    },
    {
      "inputs": [
        {
          "internalType": "string",
          "name": "name",
          "type": "string"
        },
        {
          "internalType": "string",
          "name": "description",
          "type": "string"
        }
      ],
      "name": "registerAgent",
      "outputs": [
        {
          "internalType": "uint256",
          "name": "",
          "type": "uint256"
        }
      ],
      "stateMutability": "nonpayable",
      "type": "function"
    },
    {
      "inputs": [],
      "name": "renounceOwnership",
      "outputs": [],
      "stateMutability": "nonpayable",
      "type": "function"
    },
    {
      "inputs": [
        {
          "internalType": "address",
          "name": "_taskContract",
          "type": "address"
        }
      ],
      "name": "setTaskContract",
      "outputs": [],
      "stateMutability": "nonpayable",
      "type": "function"
    },
    {
      "inputs": [],
      "name": "taskContract",
      "outputs": [
        {
          "internalType": "address",
          "name": "",
          "type": "address"
        }
      ],
      "stateMutability": "view",
      "type": "function"
    },
    {
      "inputs": [
        {
          "internalType": "address",
          "name": "newOwner",
          "type": "address"
        }
      ],
      "name": "transferOwnership",
      "outputs": [],
      "stateMutability": "nonpayable",
      "type": "function"
    },
    {
      "inputs": [
        {
          "internalType": "uint256",
          "name": "agentId",
          "type": "uint256"
        },
        {
          "internalType": "int256",
          "name": "delta",
          "type": "int256"
        }
      ],
      "name": "updateReputation",
      "outputs": [],
      "stateMutability": "nonpayable",
      "type": "function"
    }
  ],
  "bytecode": "0x6080806040523461007e5733156100685760008054336001600160a01b03198216811783556040519290916001600160a01b0316907f8be0079c531659141344cd1fd0a4f28419497f9722a3daafe3b4186f6b6457e09080a360018055610c0b90816100848239f35b631e4fbdf760e01b815260006004820152602490fd5b600080fdfe608080604052600436101561001357600080fd5b60003560e01c9081632de5aaf7146108ef5750806330efc498146108d15780633b70aebc146108a8578063464c401d1461074b578063513856c8146106b6578063715018a61461065d57806389370d8b1461062e5780638c57c521146105ab5780638da5cb5b14610582578063ae57a2d314610544578063e46d717f14610544578063f2fde38b146104b95763ff17aca4146100ae57600080fd5b346104b45760403660031901126104b45760043567ffffffffffffffff81116104b4576100df903690600401610b52565b60243567ffffffffffffffff81116104b4576100ff903690600401610b52565b9033600052600360205260406000205461046f5760015490600019821461045957600182016001556040519261013484610a70565b828452602084019033825260408501908382526060860152606460808601524260a086015283600052600260205260406000209185518355600183019060018060a01b039051166001600160601b0360a01b8254161790555180519067ffffffffffffffff82116103735781906101ae6002850154610a36565b601f8111610406575b50602090601f831160011461039457600092610389575b50508160011b916000199060031b1c19161760028201555b606084015193845167ffffffffffffffff81116103735761020a6003840154610a36565b95601f871161032c575b602096508690601f83116001146102b95791806005949260a0946000926102ae575b50508160011b916000199060031b1c19161760038501555b608081015160048501550151910155336000526003835281604060002055817f0d063c6022bff16d09991a9f91882ffa112f5fb2529136f65eb4c77bbd047e43604051858152806102a33395888301906109f6565b0390a3604051908152f35b015190503880610236565b9060038501600052876000209160005b601f19851681106103155750926005949260019260a09583601f198116106102fc575b505050811b01600385015561024e565b015160001960f88460031b161c191690553880806102ec565b9192896001819286850151815501940192016102c9565b600384016000526020600020601f830160051c81016020841061036c575b601f890160051c82018110610360575050610214565b6000815560010161034a565b508061034a565b634e487b7160e01b600052604160045260246000fd5b0151905038806101ce565b9250600284016000526020600020906000935b601f19841685106103eb576001945083601f198116106103d2575b505050811b0160028201556101e6565b015160001960f88460031b161c191690553880806103c2565b818101518355602094850194600190930192909101906103a7565b909150600284016000526020600020601f840160051c810160208510610452575b90849392915b601f830160051c820181106104435750506101b7565b6000815585945060010161042d565b5080610427565b634e487b7160e01b600052601160045260246000fd5b60405162461bcd60e51b815260206004820152601860248201527f4167656e7420616c7265616479207265676973746572656400000000000000006044820152606490fd5b600080fd5b346104b45760203660031901126104b4576004356001600160a01b03818116918290036104b4576104e8610ba9565b811561052b57600054826001600160601b0360a01b821617600055167f8be0079c531659141344cd1fd0a4f28419497f9722a3daafe3b4186f6b6457e0600080a3005b604051631e4fbdf760e01b815260006004820152602490fd5b346104b45760203660031901126104b4576004356001600160a01b038116908190036104b45760005260036020526020604060002054604051908152f35b346104b45760003660031901126104b4576000546040516001600160a01b039091168152602090f35b346104b45760203660031901126104b4576004356001600160a01b038116908190036104b4576105d9610ba9565b80156105f7576001600160601b0360a01b6004541617600455600080f35b60405162461bcd60e51b815260206004820152600f60248201526e496e76616c6964206164647265737360881b6044820152606490fd5b346104b45760203660031901126104b45760043560005260026020526020600460406000200154604051908152f35b346104b45760003660031901126104b457610676610ba9565b600080546001600160a01b0319811682556001600160a01b03167f8be0079c531659141344cd1fd0a4f28419497f9722a3daafe3b4186f6b6457e08280a3005b346104b45760203660031901126104b45760043560005260026020526040600020805460018060a01b03600183015416916106f360028201610aae565b61073c61070260038401610aae565b61072e60056004860154950154936040519788978852602088015260c0604088015260c08701906109f6565b9085820360608701526109f6565b91608084015260a08301520390f35b346104b45760403660031901126104b45760048054903590602435906001600160a01b0316330361086f5781600052600260205260406000209081541561083857600081128061081d575b156107d3575060206004826000827ea4f8488cd701f9a77136eb5c91d5e2edef3c38001ca7148525acf8a26264819501555b0154604051908152a2005b60048201805460008382019384129112908015821691151617610459577ea4f8488cd701f9a77136eb5c91d5e2edef3c38001ca7148525acf8a262648192602092600492556107c8565b50600160ff1b81146104595760048201548160000311610796565b60405162461bcd60e51b815260206004820152600f60248201526e1059d95b9d081b9bdd08199bdd5b99608a1b6044820152606490fd5b60405162461bcd60e51b8152602060048201526011602482015270139bdd081d185cdac818dbdb9d1c9858dd607a1b6044820152606490fd5b346104b45760003660031901126104b4576004546040516001600160a01b039091168152602090f35b346104b45760003660031901126104b4576020600154604051908152f35b346104b457602090816003193601126104b45760a081610910600093610a70565b82815282848201526060604082015260608082015282608082015201526004356000526002815260406000206040519061094982610a70565b8054825260018101546001600160a01b03908116848401908152906109e5906109d261097760028601610aae565b6040870190815261098a60038701610aae565b9260608801938452600560048801549760808a0198895201549560a08901968752604051998a99818b5251908a0152511660408801525160c0606088015260e08701906109f6565b9051858203601f190160808701526109f6565b915160a08401525160c08301520390f35b919082519283825260005b848110610a22575050826000602080949584010152601f8019910116010190565b602081830181015184830182015201610a01565b90600182811c92168015610a66575b6020831014610a5057565b634e487b7160e01b600052602260045260246000fd5b91607f1691610a45565b60c0810190811067ffffffffffffffff82111761037357604052565b90601f8019910116810190811067ffffffffffffffff82111761037357604052565b90604051918260008254610ac181610a36565b908184526020946001918281169081600014610b305750600114610af1575b505050610aef92500383610a8c565b565b600090815285812095935091905b818310610b18575050610aef9350820101388080610ae0565b85548884018501529485019487945091830191610aff565b92505050610aef94925060ff191682840152151560051b820101388080610ae0565b81601f820112156104b45780359067ffffffffffffffff82116103735760405192610b87601f8401601f191660200185610a8c565b828452602083830101116104b457816000926020809301838601378301015290565b6000546001600160a01b03163303610bbd57565b60405163118cdaa760e01b8152336004820152602490fdfea2646970667358221220ff8883143458f9ddbad4837e423d79c62fb3906ec0d4b9735d2d94c61212d4b164736f6c63430008150033",
  "linkReferences": {},
  "deployedLinkReferences": {}
}