{
  "_format": "hh-sol-artifact-1",
  "contractName": "NautilusToken",
  "sourceName": "src/NautilusToken.sol",
  "abi": [
    {
      "inputs": [],
      "stateMutability": "nonpayable",
      "type": "constructor"
    },
    {
      "inputs": [
        {
          "internalType": "address",
          "name": "spender",
          "type": "address"
        },
        {
          "internalType": "uint256",
          "name": "allowance",
          "type": "uint256"
        },
        {
          "internalType": "uint256",
          "name": "needed",
          "type": "uint256"
        }
      ],
      "name": "ERC20InsufficientAllowance",
      "type": "error"
    },
    {
      "inputs": [
        {
          "internalType": "address",
          "name": "sender",
          "type": "address"
        },
        {
          "internalType": "uint256",
          "name": "balance",
          "type": "uint256"
        },
        {
          "internalType": "uint256",
          "name": "needed",
          "type": "uint256"
        }
      ],
      "name": "ERC20InsufficientBalance",
      "type": "error"
    },
    {
      "inputs": [
        {
          "internalType": "address",
          "name": "approver",
          "type": "address"
        }
      ],
      "name": "ERC20InvalidApprover",
      "type": "error"
    },
    {
      "inputs": [
        {
          "internalType": "address",
          "name": "receiver",
          "type": "address"
        }
      ],
      "name": "ERC20InvalidReceiver",
      "type": "error"
    },
    {
      "inputs": [
        {
          "internalType": "address",
          "name": "sender",
          "type": "address"
        }
      ],
      "name": "ERC20InvalidSender",
      "type": "error"
    },
    {
      "inputs": [
        {
          "internalType": "address",
          "name": "spender",
          "type": "address"
        }
      ],
      "name": "ERC20InvalidSpender",
      "type": "error"
    },
    {
      "inputs": [
        {
          "internalType": "address",
          "name": "owner",
          "type": "address"
        }
      ],
      "name": "OwnableInvalidOwner",
      "type": "error"
    },
    {
      "inputs": [
        {
          "internalType": "address",
          "name": "account",
          "type": "address"
        }
      ],
      "name": "OwnableUnauthorizedAccount",
      "type": "error"
    },
    {
      "anonymous": false,
      "inputs": [
        {
          "indexed": true,
          "internalType": "address",
          "name": "owner",
          "type": "address"
        },
        {
          "indexed": true,
          "internalType": "address",
          "name": "spender",
          "type": "address"
        },
        {
          "indexed": false,
          "internalType": "uint256",
          "name": "value",
          "type": "uint256"
        }
      ],
      "name": "Approval",
      "type": "event"
    },
    {
      "anonymous": false,
      "inputs": [
        {
          "indexed": true,
          "internalType": "address",
          "name": "previousOwner",
          "type": "address"
        },
        {
          "indexed": true,
          "internalType": "address",
          "name": "newOwner",
          "type": "address"
        }
      ],
      "name": "OwnershipTransferred",
      "type": "event"
    },
    {
      "anonymous": false,
      "inputs": [
        {
          "indexed": true,
          "internalType": "address",
          "name": "agent",
          "type": "address"
        },
        {
          "indexed": false,
          "internalType": "uint256",
          "name": "amount",
          "type": "uint256"
        },
        {
          "indexed": false,
          "internalType": "string",
          "name": "taskType",
          "type": "string"
        }
      ],
      "name": "TaskRewarded",
      "type": "event"
    },
    {
      "anonymous": false,
      "inputs": [
        {
          "indexed": true,
          "internalType": "address",
          "name": "from",
          "type": "address"
        },
        {
          "indexed": true,
          "internalType": "address",
          "name": "to",
          "type": "address"
        },
        {
          "indexed": false,
          "internalType": "uint256",
          "name": "value",
          "type": "uint256"
        }
      ],
      "name": "Transfer",
      "type": "event"
    },
    {
      "inputs": [
        {
          "internalType": "address",
          "name": "owner",
          "type": "address"
        },
        {
          "internalType": "address",
          "name": "spender",
          "type": "address"
        }
      ],
      "name": "allowance",
      "outputs": [
        {
          "internalType": "uint256",
          "name": "",
          "type": "uint256"
        }
      ],
      "stateMutability": "view",
      "type": "function"
    },
    {
      "inputs": [
        {
          "internalType": "address",
          "name": "spender",
          "type": "address"
        },
        {
          "internalType": "uint256",
          "name": "value",
          "type": "uint256"
        }
      ],
      "name": "approve",
      "outputs": [
        {
          "internalType": "bool",
          "name": "",
          "type": "bool"
        }
      ],
      "stateMutability": "nonpayable",
      "type": "function"
    },
    {
      "inputs": [
        {
          "internalType": "address",
          "name": "account",
          "type": "address"
        }
      ],
      "name": "balanceOf",
      "outputs": [
        {
          "internalType": "uint256",
          "name": "",
          "type": "uint256"
        }
      ],
      "stateMutability": "view",
      "type": "function"
    },
    {
      "inputs": [],
      "name": "decimals",
      "outputs": [
        {
          "internalType": "uint8",
          "name": "",
          "type": "uint8"
        }
      ],
      "stateMutability": "view",
      "type": "function"
    },
    {
      "inputs": [
        {
          "internalType": "address",
          "name": "to",
          "type": "address"
        },
        {
          "internalType": "uint256",
          "name": "amount",
          "type": "uint256"
        }
      ],
      "name": "mint",
      "outputs": [],
      "stateMutability": "nonpayable",
      "type": "function"
    },
    {
      "inputs": [
        {
          "internalType": "address",
          "name": "to",
          "type": "address"
        },
        {
          "internalType": "uint256",
          "name": "amount",
          "type": "uint256"
        },
        {
          "internalType": "string",
          "name": "taskType",
          "type": "string"
        }
      ],
      "name": "mintForTask",
      "outputs": [],
      "stateMutability": "nonpayable",
      "type": "function"
    },
    {
      "inputs": [],
      "name": "name",
      "outputs": [
        {
          "internalType": "string",
          "name": "",
          "type": "string"
        }
      ],
      "stateMutability": "view",
      "type": "function"
    },
    {
      "inputs": [],
      "name": "owner",
      "outputs": [
        {
          "internalType": "address",
          "name": "",
          "type": "address"
        }
      ],
      "stateMutability": "view",
      "type": "function"
    },
    {
      "inputs": [],
      "name": "renounceOwnership",
      "outputs": [],
      "stateMutability": "nonpayable",
      "type": "function"
    },
    {
      "inputs": [],
      "name": "symbol",
      "outputs": [
        {
          "internalType": "string",
          "name": "",
          "type": "string"
        }
      ],
      "stateMutability": "view",
      "type": "function"
    },
    {
      "inputs": [],
      "name": "totalSupply",
      "outputs": [
        {
          "internalType": "uint256",
          "name": "",
          "type": "uint256"
        }
      ],
      "stateMutability": "view",
      "type": "function"
    },
    {
      "inputs": [
        {
          "internalType": "address",
          "name": "to",
          "type": "address"
        },
        {
          "internalType": "uint256",
          "name": "value",
          "type": "uint256"
        }
      ],
      "name": "transfer",
      "outputs": [
        {
          "internalType": "bool",
          "name": "",
          "type": "bool"
        }
      ],
      "stateMutability": "nonpayable",
      "type": "function"
    },
    {
      "inputs": [
        {
          "internalType": "address",
          "name": "from",
          "type": "address"
        },
        {
          "internalType": "address",
          "name": "to",
          "type": "address"
        },
        {
          "internalType": "uint256",
          "name": "value",
          "type": "uint256"
        }
      ],
      "name": "transferFrom",
      "outputs": [
        {
          "internalType": "bool",
          "name": "",
          "type": "bool"
        }
      ],
      "stateMutability": "nonpayable",
      "type": "function"
    },
    {
      "inputs": [
        {
          "internalType": "address",
          "name": "newOwner",
          "type": "address"
        }
      ],
      "name": "transferOwnership",
      "outputs": [],
      "stateMutability": "nonpayable",
      "type": "function"
    }
  ],
  "bytecode": "0x60803462000376576040906001600160401b03908083018281118282101762000276578352600e81526020916d2730baba34b63ab9902a37b5b2b760911b8383015283518481018181108382111762000276578552600390818152624e415560e81b8582015283519083821162000276578254916001958684811c941680156200036b575b8885101462000355578190601f94858111620002ff575b50889085831160011462000298576000926200028c575b505060001982861b1c191690861b1783555b8051938411620002765760049586548681811c911680156200026b575b8282101462000256578381116200020b575b50809285116001146200019d575093839491849260009562000191575b50501b92600019911b1c19161781555b33156200017b575060058054336001600160a01b0319821681179092559151916001600160a01b03167f8be0079c531659141344cd1fd0a4f28419497f9722a3daafe3b4186f6b6457e0600080a36109a990816200037c8239f35b60006024925191631e4fbdf760e01b8352820152fd5b01519350388062000110565b92919084601f1981168860005285600020956000905b89838310620001f05750505010620001d5575b50505050811b01815562000120565b01519060f884600019921b161c1916905538808080620001c6565b858701518955909701969485019488935090810190620001b3565b87600052816000208480880160051c8201928489106200024c575b0160051c019087905b8281106200023f575050620000f3565b600081550187906200022f565b9250819262000226565b602288634e487b7160e01b6000525260246000fd5b90607f1690620000e1565b634e487b7160e01b600052604160045260246000fd5b015190503880620000b2565b90889350601f19831691876000528a6000209260005b8c828210620002e85750508411620002cf575b505050811b018355620000c4565b015160001983881b60f8161c19169055388080620002c1565b8385015186558c97909501949384019301620002ae565b90915085600052886000208580850160051c8201928b86106200034b575b918a91869594930160051c01915b8281106200033b5750506200009b565b600081558594508a91016200032b565b925081926200031d565b634e487b7160e01b600052602260045260246000fd5b93607f169362000084565b600080fdfe6080604081815260048036101561001557600080fd5b600092833560e01c90816306fdde031461068357508063095ea7b3146105da57806318160ddd146105bb57806323b872dd146104c8578063313ce567146104ac57806340c10f191461047c57806370a0823114610445578063715018a6146103e55780638da5cb5b146103bc57806395d89b411461029c578063a9059cbb1461026b578063b983dc731461019c578063dd62ed3e1461014f5763f2fde38b146100bd57600080fd5b3461014b57602036600319011261014b576100d66107c1565b906100df6107f2565b6001600160a01b03918216928315610135575050600554826bffffffffffffffffffffffff60a01b821617600555167f8be0079c531659141344cd1fd0a4f28419497f9722a3daafe3b4186f6b6457e08380a380f35b51631e4fbdf760e01b8152908101849052602490fd5b8280fd5b5050346101985780600319360112610198578060209261016d6107c1565b6101756107dc565b6001600160a01b0391821683526001865283832091168252845220549051908152f35b5080fd5b50903461014b57606036600319011261014b576101b76107c1565b906024356044359067ffffffffffffffff94858311610267573660238401121561026757820135948511610263573660248684010111610263577faeceacd2fd61d53e6fdbf86eaecfe5c17667f511cc5a4c6438a403ea14a34942938560246060946102216107f2565b61022b85856108fc565b8287519788968752806020880152860152018484013781860183018790526001600160a01b031694601f01601f19168101030190a280f35b8580fd5b8680fd5b50503461019857806003193601126101985760209061029561028b6107c1565b602435903361081e565b5160018152f35b50919034610198578160031936011261019857805190828454600181811c908083169283156103b2575b602093848410811461039f57838852908115610383575060011461032e575b505050829003601f01601f191682019267ffffffffffffffff84118385101761031b5750829182610317925282610778565b0390f35b634e487b7160e01b815260418552602490fd5b8787529192508591837f8a35acfbc15ff81a39ae7d344fd709f28e8600b4aa8c65c6b64bfe7fe36bd19b5b83851061036f57505050508301013880806102e5565b805488860183015293019284908201610359565b60ff1916878501525050151560051b84010190503880806102e5565b634e487b7160e01b895260228a52602489fd5b91607f16916102c6565b50503461019857816003193601126101985760055490516001600160a01b039091168152602090f35b83346104425780600319360112610442576103fe6107f2565b600580546001600160a01b0319811690915581906001600160a01b03167f8be0079c531659141344cd1fd0a4f28419497f9722a3daafe3b4186f6b6457e08280a380f35b80fd5b5050346101985760203660031901126101985760209181906001600160a01b0361046d6107c1565b16815280845220549051908152f35b50503461019857366003190112610442576104a96104986107c1565b6104a06107f2565b602435906108fc565b80f35b5050346101985781600319360112610198576020905160128152f35b508234610442576060366003190112610442576104e36107c1565b6104eb6107dc565b916044359360018060a01b038316808352600160205286832033845260205286832054916000198310610527575b60208861029589898961081e565b86831061058f5781156105785733156105615750825260016020908152868320338452815291869020908590039055829061029587610519565b8751634a1406b160e11b8152908101849052602490fd5b875163e602df0560e01b8152908101849052602490fd5b8751637dc7a0d960e11b8152339181019182526020820193909352604081018790528291506060010390fd5b5050346101985781600319360112610198576020906002549051908152f35b503461014b578160031936011261014b576105f36107c1565b60243590331561066c576001600160a01b031691821561065557508083602095338152600187528181208582528752205582519081527f8c5be1e5ebec7d5bd14f71427d1e84f3dd0314c0f7b2291e5b200ac8c7c3b925843392a35160018152f35b8351634a1406b160e11b8152908101859052602490fd5b835163e602df0560e01b8152808401869052602490fd5b849150833461014b578260031936011261014b5782600354600181811c9080831692831561076e575b602093848410811461039f5783885290811561075257506001146106fc57505050829003601f01601f191682019267ffffffffffffffff84118385101761031b5750829182610317925282610778565b600387529192508591837fc2575a0e9e593c00f959f8c92f12db2869c3395a3b0502d05e2516446f71f85b5b83851061073e57505050508301018580806102e5565b805488860183015293019284908201610728565b60ff1916878501525050151560051b84010190508580806102e5565b91607f16916106ac565b6020808252825181830181905290939260005b8281106107ad57505060409293506000838284010152601f8019910116010190565b81810186015184820160400152850161078b565b600435906001600160a01b03821682036107d757565b600080fd5b602435906001600160a01b03821682036107d757565b6005546001600160a01b0316330361080657565b60405163118cdaa760e01b8152336004820152602490fd5b916001600160a01b038084169283156108e357169283156108ca5760009083825281602052604082205490838210610898575091604082827fddf252ad1be2c89b69c2b068fc378daa952ba7f163c4a11628f55a4df523b3ef958760209652828652038282205586815220818154019055604051908152a3565b60405163391434e360e21b81526001600160a01b03919091166004820152602481019190915260448101839052606490fd5b60405163ec442f0560e01b815260006004820152602490fd5b604051634b637e8f60e11b815260006004820152602490fd5b6001600160a01b03169081156108ca576002549080820180921161095d5760207fddf252ad1be2c89b69c2b068fc378daa952ba7f163c4a11628f55a4df523b3ef9160009360025584845283825260408420818154019055604051908152a3565b634e487b7160e01b600052601160045260246000fdfea2646970667358221220a0f2cc7bdbb2fd1158537cd6fe033ba96173f413d81740c063fe387a3cf3f98964736f6c63430008150033",
  "linkReferences": {},
  "deployedLinkReferences": {}
}