{
  "_format": "hh-sol-artifact-1",
  "contractName": "WalletRegistry",
  "sourceName": "src/WalletRegistry.sol",
  "abi": [
    {
      "inputs": [],
      "stateMutability": "nonpayable",
      "type": "constructor"
    },
    {
      "inputs": [
        {
          "internalType": "address",
          "name": "owner",
          "type": "address"
        }
      ],
      "name": "OwnableInvalidOwner",
      "type": "error"
    },
    {
      "inputs": [
        {
          "internalType": "address",
          "name": "account",
          "type": "address"
        }
      ],
      "name": "OwnableUnauthorizedAccount",
      "type": "error"
    },
    {
      "anonymous": false,
      "inputs": [
        {
          "indexed": true,
          "internalType": "address",
          "name": "previousOwner",
          "type": "address"
        },
        {
          "indexed": true,
          "internalType": "address",
          "name": "newOwner",
          "type": "address"
        }
      ],
      "name": "OwnershipTransferred",
      "type": "event"
    },
    {
      "anonymous": false,
      "inputs": [
        {
          "indexed": true,
          "internalType": "address",
          "name": "wallet",
          "type": "address"
        },
        {
          "indexed": false,
          "internalType": "uint256",
          "name": "timestamp",
          "type": "uint256"
        }
      ],
      "name": "WalletDeactivated",
      "type": "event"
    },
    {
      "anonymous": false,
      "inputs": [
        {
          "indexed": true,
          "internalType": "address",
          "name": "wallet",
          "type": "address"
        },
        {
          "indexed": true,
          "internalType": "uint256",
          "name": "agentId",
          "type": "uint256"
        },
        {
          "indexed": false,
          "internalType": "uint256",
          "name": "timestamp",
          "type": "uint256"
        }
      ],
      "name": "WalletRegistered",
      "type": "event"
    },
    {
      "inputs": [
        {
          "internalType": "uint256",
          "name": "",
          "type": "uint256"
        }
      ],
      "name": "agentIdToWallet",
      "outputs": [
        {
          "internalType": "address",
          "name": "",
          "type": "address"
        }
      ],
      "stateMutability": "view",
      "type": "function"
    },
    {
      "inputs": [
        {
          "internalType": "address",
          "name": "wallet",
          "type": "address"
        }
      ],
      "name": "deactivateWallet",
      "outputs": [],
      "stateMutability": "nonpayable",
      "type": "function"
    },
    {
      "inputs": [
        {
          "internalType": "address",
          "name": "wallet",
          "type": "address"
        }
      ],
      "name": "getAgentId",
      "outputs": [
        {
          "internalType": "uint256",
          "name": "",
          "type": "uint256"
        }
      ],
      "stateMutability": "view",
      "type": "function"
    },
    {
      "inputs": [
        {
          "internalType": "uint256",
          "name": "agentId",
          "type": "uint256"
        }
      ],
      "name": "getWallet",
      "outputs": [
        {
          "internalType": "address",
          "name": "",
          "type": "address"
        }
      ],
      "stateMutability": "view",
      "type": "function"
    },
    {
      "inputs": [
        {
          "internalType": "address",
          "name": "wallet",
          "type": "address"
        }
      ],
      "name": "isRegistered",
      "outputs": [
        {
          "internalType": "bool",
          "name": "",
          "type": "bool"
        }
      ],
      "stateMutability": "view",
      "type": "function"
    },
    {
      "inputs": [],
      "name": "owner",
      "outputs": [
        {
          "internalType": "address",
          "name": "",
          "type": "address"
        }
      ],
      "stateMutability": "view",
      "type": "function"
    },
    {
      "inputs": [
        {
          "internalType": "address[]",
          "name": "wallets",
          "type": "address[]"
        },
        {
          "internalType": "uint256[]",
          "name": "agentIds",
          "type": "uint256[]"
        }
      ],
      "name": "registerBatch",
      "outputs": [],
      "stateMutability": "nonpayable",
      "type": "function"
    },
    {
      "inputs": [
        {
          "internalType": "address",
          "name": "wallet",
          "type": "address"
        },
        {
          "internalType": "uint256",
          "name": "agentId",
          "type": "uint256"
        }
      ],
      "name": "registerWallet",
      "outputs": [],
      "stateMutability": "nonpayable",
      "type": "function"
    },
    {
      "inputs": [
        {
          "internalType": "address",
          "name": "",
          "type": "address"
        }
      ],
      "name": "registeredWallets",
      "outputs": [
        {
          "internalType": "bool",
          "name": "",
          "type": "bool"
        }
      ],
      "stateMutability": "view",
      "type": "function"
    },
    {
      "inputs": [],
      "name": "renounceOwnership",
      "outputs": [],
      "stateMutability": "nonpayable",
      "type": "function"
    },
    {
      "inputs": [],
      "name": "totalRegistered",
      "outputs": [
        {
          "internalType": "uint256",
          "name": "",
          "type": "uint256"
        }
      ],
      "stateMutability": "view",
      "type": "function"
    },
    {
      "inputs": [
        {
          "internalType": "address",
          "name": "newOwner",
          "type": "address"
        }
      ],
      "name": "transferOwnership",
      "outputs": [],
      "stateMutability": "nonpayable",
      "type": "function"
    },
    {
      "inputs": [
        {
          "internalType": "address",
          "name": "",
          "type": "address"
        }
      ],
      "name": "walletToAgentId",
      "outputs": [
        {
          "internalType": "uint256",
          "name": "",
          "type": "uint256"
        }
      ],
      "stateMutability": "view",
      "type": "function"
    }
  ],
  "bytecode": "0x6080806040523461007a5733156100645760008054336001600160a01b03198216811783556040519290916001600160a01b0316907f8be0079c531659141344cd1fd0a4f28419497f9722a3daafe3b4186f6b6457e09080a361086a90816100808239f35b631e4fbdf760e01b815260006004820152602490fd5b600080fdfe6040608081526004908136101561001557600080fd5b600091823560e01c8063042324b6146106d25780630b3ffd1d1461064f5780634cc04a901461061d5780635470b13b1461061d578063715018a6146105c0578063745f9d62146103775780638da5cb5b1461034f578063927416c014610332578063b3fa7cb8146102fa578063b479d3a9146102b8578063c3c5a547146102b8578063f2fde38b146102325763f3ee4522146100b057600080fd5b3461022e578160031936011261022e576100c8610720565b602435926100d461076c565b6001600160a01b039182169283156101fa578386526020926001845260ff83882054166101c35785875260038452828720541661018257907fab2b52809957568919b0d57244b114fee64469a94ba9d6cfb1b1ca4e732fd214929184875260018352818720600160ff1982541617905560028352858288205585875260038352818720856bffffffffffffffffffffffff60a01b8254161790556101788154610798565b905551428152a380f35b82606492519162461bcd60e51b8352820152601860248201527f4167656e7420616c7265616479206861732077616c6c657400000000000000006044820152fd5b5082606492519162461bcd60e51b83528201526012602482015271105b1c9958591e481c9959da5cdd195c995960721b6044820152fd5b6020606492519162461bcd60e51b8352820152600f60248201526e496e76616c6964206164647265737360881b6044820152fd5b8280fd5b503461022e57602036600319011261022e5761024c610720565b9061025561076c565b6001600160a01b039182169283156102a257505082546001600160a01b0319811683178455167f8be0079c531659141344cd1fd0a4f28419497f9722a3daafe3b4186f6b6457e08380a380f35b51631e4fbdf760e01b8152908101849052602490fd5b5050346102f65760203660031901126102f65760209160ff9082906001600160a01b036102e3610720565b1681526001855220541690519015158152f35b5080fd5b5050346102f65760203660031901126102f65760209181906001600160a01b03610322610720565b1681526002845220549051908152f35b503461022e578260031936011261022e5760209250549051908152f35b5050346102f657816003193601126102f657905490516001600160a01b039091168152602090f35b50903461022e578060031936011261022e5767ffffffffffffffff82358181116105bc576103a8903690850161073b565b90916024359081116105b8576103c1903690860161073b565b9490926103cc61076c565b858303610583576064831161054e57865b8381106103e8578780f35b610434906001600160a01b03806104086104038489886107bd565b6107e3565b168a52600160209080825260ff8a8d2054161580610536575b80610517575b610439575b505050610798565b6103dd565b82610448610403868b8a6107bd565b168c52808252898c209060ff19825416179055610466838b8a6107bd565b3582610476610403868b8a6107bd565b168c5260028252898c205561048f6104038489886107bd565b61049a848c8b6107bd565b358c5260038252828a8d2091166bffffffffffffffffffffffff60a01b8254161790556104c78654610798565b86557fab2b52809957568919b0d57244b114fee64469a94ba9d6cfb1b1ca4e732fd2146104f8610403858a896107bd565b91610504858d8c6107bd565b35938b51934285521692a338808061042c565b50610523848c8b6107bd565b358c5260038252828a8d20541615610427565b5082610546610403868b8a6107bd565b161515610421565b845162461bcd60e51b8152602081840152600f60248201526e426174636820746f6f206c6172676560881b6044820152606490fd5b845162461bcd60e51b8152602081840152600f60248201526e098cadccee8d040dad2e6dac2e8c6d608b1b6044820152606490fd5b8580fd5b8480fd5b833461061a578060031936011261061a576105d961076c565b80546001600160a01b03198116825581906001600160a01b03167f8be0079c531659141344cd1fd0a4f28419497f9722a3daafe3b4186f6b6457e08280a380f35b80fd5b503461022e57602036600319011261022e5735825260036020908152918190205490516001600160a01b039091168152f35b5050346102f65760203660031901126102f6577f95801d33020bb843193f86dd45b7acdcde7a84aec619c30cde9f9aca697486bc602061068d610720565b61069561076c565b6001600160a01b031680855260018252838520549093906106b89060ff166107f7565b83855260018252808520805460ff1916905551428152a280f35b5050346102f65760203660031901126102f65760209181906001600160a01b036106fa610720565b168082526001855261071160ff84842054166107f7565b81526002845220549051908152f35b600435906001600160a01b038216820361073657565b600080fd5b9181601f840112156107365782359167ffffffffffffffff8311610736576020808501948460051b01011161073657565b6000546001600160a01b0316330361078057565b60405163118cdaa760e01b8152336004820152602490fd5b60001981146107a75760010190565b634e487b7160e01b600052601160045260246000fd5b91908110156107cd5760051b0190565b634e487b7160e01b600052603260045260246000fd5b356001600160a01b03811681036107365790565b156107fe57565b60405162461bcd60e51b815260206004820152600e60248201526d139bdd081c9959da5cdd195c995960921b6044820152606490fdfea264697066735822122026f7322014546f9c1b45157a307c17d6c772e1bafb1588cf304261751f99c9e464736f6c63430008150033",
  "linkReferences": {},
  "deployedLinkReferences": {}
}