{"src/TaskContract.sol":{"TaskContract":{"abi":[{"inputs":[],"stateMutability":"nonpayable","type":"constructor"},{"inputs":[],"name":"InsufficientAllowance","type":"error"},{"inputs":[],"name":"InvalidTimeout","type":"error"},{"inputs":[],"name":"NotDisputeResolver","type":"error"},{"inputs":[],"name":"NotTaskAgent","type":"error"},{"inputs":[],"name":"NotVerificationEngine","type":"error"},{"inputs":[{"internalType":"address","name":"owner","type":"address"}],"name":"OwnableInvalidOwner","type":"error"},{"inputs":[{"internalType":"address","name":"account","type":"address"}],"name":"OwnableUnauthorizedAccount","type":"error"},{"inputs":[],"name":"ReentrancyGuardReentrantCall","type":"error"},{"inputs":[],"name":"RewardContractNotSet","type":"error"},{"inputs":[],"name":"RewardDistributionFailed","type":"error"},{"inputs":[{"internalType":"address","name":"token","type":"address"}],"name":"SafeERC20FailedOperation","type":"error"},{"inputs":[],"name":"TaskNotAccepted","type":"error"},{"inputs":[],"name":"TaskNotDisputed","type":"error"},{"inputs":[],"name":"TaskNotFailed","type":"error"},{"inputs":[],"name":"TaskNotOpen","type":"error"},{"inputs":[],"name":"TaskNotSubmitted","type":"error"},{"inputs":[],"name":"TaskNotTimedOut","type":"error"},{"inputs":[],"name":"TaskNotVerified","type":"error"},{"inputs":[],"name":"TaskTimedOut","type":"error"},{"inputs":[],"name":"UnsupportedToken","type":"error"},{"inputs":[],"name":"ZeroReward","type":"error"},{"anonymous":false,"inputs":[{"indexed":true,"internalType":"uint256","name":"taskId","type":"uint256"},{"indexed":false,"internalType":"bool","name":"originalResult","type":"bool"}],"name":"DisputeResolved","type":"event"},{"anonymous":false,"inputs":[{"indexed":true,"internalType":"address","name":"previousOwner","type":"address"},{"indexed":true,"internalType":"address","name":"newOwner","type":"address"}],"name":"OwnershipTransferred","type":"event"},{"anonymous":false,"inputs":[{"indexed":true,"internalType":"uint256","name":"taskId","type":"uint256"},{"indexed":true,"internalType":"address","name":"agent","type":"address"}],"name":"TaskAccepted","type":"event"},{"anonymous":false,"inputs":[{"indexed":true,"internalType":"uint256","name":"taskId","type":"uint256"},{"indexed":true,"internalType":"address","name":"agent","type":"address"},{"indexed":false,"internalType":"uint256","name":"reward","type":"uint256"}],"name":"TaskCompleted","type":"event"},{"anonymous":false,"inputs":[{"indexed":true,"internalType":"uint256","name":"taskId","type":"uint256"},{"indexed":false,"internalType":"string","name":"reason","type":"string"}],"name":"TaskDisputed","type":"event"},{"anonymous":false,"inputs":[{"indexed":true,"internalType":"uint256","name":"taskId","type":"uint256"},{"indexed":true,"internalType":"address","name":"publisher","type":"address"},{"indexed":true,"internalType":"address","name":"token","type":"address"},{"indexed":false,"internalType":"uint256","name":"reward","type":"uint256"},{"indexed":false,"internalType":"enum TaskContract.TaskType","name":"taskType","type":"uint8"}],"name":"TaskPublished","type":"event"},{"anonymous":false,"inputs":[{"indexed":true,"internalType":"uint256","name":"taskId","type":"uint256"},{"indexed":false,"internalType":"string","name":"result","type":"string"}],"name":"TaskSubmitted","type":"event"},{"anonymous":false,"inputs":[{"indexed":true,"internalType":"uint256","name":"taskId","type":"uint256"}],"name":"TaskTimeout","type":"event"},{"anonymous":false,"inputs":[{"indexed":true,"internalType":"uint256","name":"taskId","type":"uint256"},{"indexed":false,"internalType":"bool","name":"isValid","type":"bool"}],"name":"TaskVerified","type":"event"},{"anonymous":false,"inputs":[{"indexed":true,"internalType":"address","name":"token","type":"address"}],"name":"TokenAdded","type":"event"},{"inputs":[{"internalType":"uint256","name":"taskId","type":"uint256"}],"name":"acceptTask","outputs":[],"stateMutability":"nonpayable","type":"function"},{"inputs":[{"internalType":"address","name":"token","type":"address"}],"name":"addSupportedToken","outputs":[],"stateMutability":"nonpayable","type":"function"},{"inputs":[{"internalType":"uint256","name":"taskId","type":"uint256"}],"name":"completeTask","outputs":[],"stateMutability":"nonpayable","type":"function"},{"inputs":[],"name":"disputeResolver","outputs":[{"internalType":"address","name":"","type":"address"}],"stateMutability":"view","type":"function"},{"inputs":[{"internalType":"uint256","name":"taskId","type":"uint256"},{"internalType":"string","name":"reason","type":"string"}],"name":"disputeVerification","outputs":[],"stateMutability":"nonpayable","type":"function"},{"inputs":[{"internalType":"uint256","name":"taskId","type":"uint256"}],"name":"getTask","outputs":[{"components":[{"internalType":"uint256","name":"taskId","type":"uint256"},{"internalType":"address","name":"publisher","type":"address"},{"internalType":"string","name":"description","type":"string"},{"internalType":"string","name":"inputData","type":"string"},{"internalType":"string","name":"expectedOutput","type":"string"},{"internalType":"uint256","name":"reward","type":"uint256"},{"internalType":"address","name":"paymentToken","type":"address"},{"internalType":"enum TaskContract.TaskType","name":"taskType","type":"uint8"},{"internalType":"enum TaskContract.TaskStatus","name":"status","type":"uint8"},{"internalType":"address","name":"agent","type":"address"},{"internalType":"string","name":"result","type":"string"},{"internalType":"uint256","name":"timeout","type":"uint256"},{"internalType":"uint256","name":"createdAt","type":"uint256"},{"internalType":"uint256","name":"acceptedAt","type":"uint256"},{"internalType":"uint256","name":"submittedAt","type":"uint256"},{"internalType":"uint256","name":"verifiedAt","type":"uint256"},{"internalType":"string","name":"disputeReason","type":"string"}],"internalType":"struct TaskContract.Task","name":"","type":"tuple"}],"stateMutability":"view","type":"function"},{"inputs":[{"internalType":"uint256","name":"taskId","type":"uint256"}],"name":"handleTimeout","outputs":[],"stateMutability":"nonpayable","type":"function"},{"inputs":[],"name":"nextTaskId","outputs":[{"internalType":"uint256","name":"","type":"uint256"}],"stateMutability":"view","type":"function"},{"inputs":[],"name":"owner","outputs":[{"internalType":"address","name":"","type":"address"}],"stateMutability":"view","type":"function"},{"inputs":[{"internalType":"string","name":"description","type":"string"},{"internalType":"string","name":"inputData","type":"string"},{"internalType":"string","name":"expectedOutput","type":"string"},{"internalType":"uint256","name":"reward","type":"uint256"},{"internalType":"address","name":"paymentToken","type":"address"},{"internalType":"enum TaskContract.TaskType","name":"taskType","type":"uint8"},{"internalType":"uint256","name":"timeout","type":"uint256"}],"name":"publishTask","outputs":[{"internalType":"uint256","name":"","type":"uint256"}],"stateMutability":"nonpayable","type":"function"},{"inputs":[],"name":"renounceOwnership","outputs":[],"stateMutability":"nonpayable","type":"function"},{"inputs":[{"internalType":"uint256","name":"taskId","type":"uint256"},{"internalType":"bool","name":"originalResult","type":"bool"}],"name":"resolveDispute","outputs":[],"stateMutability":"nonpayable","type":"function"},{"inputs":[],"name":"rewardContract","outputs":[{"internalType":"address","name":"","type":"address"}],"stateMutability":"view","type":"function"},{"inputs":[{"internalType":"address","name":"_resolver","type":"address"}],"name":"setDisputeResolver","outputs":[],"stateMutability":"nonpayable","type":"function"},{"inputs":[{"internalType":"address","name":"_reward","type":"address"}],"name":"setRewardContract","outputs":[],"stateMutability":"nonpayable","type":"function"},{"inputs":[{"internalType":"address","name":"_engine","type":"address"}],"name":"setVerificationEngine","outputs":[],"stateMutability":"nonpayable","type":"function"},{"inputs":[{"internalType":"uint256","name":"taskId","type":"uint256"},{"internalType":"string","name":"result","type":"string"}],"name":"submitResult","outputs":[],"stateMutability":"nonpayable","type":"function"},{"inputs":[{"internalType":"address","name":"","type":"address"}],"name":"supportedTokens","outputs":[{"internalType":"bool","name":"","type":"bool"}],"stateMutability":"view","type":"function"},{"inputs":[{"internalType":"uint256","name":"","type":"uint256"}],"name":"taskRewards","outputs":[{"internalType":"uint256","name":"","type":"uint256"}],"stateMutability":"view","type":"function"},{"inputs":[{"internalType":"uint256","name":"","type":"uint256"}],"name":"tasks","outputs":[{"internalType":"uint256","name":"taskId","type":"uint256"},{"internalType":"address","name":"publisher","type":"address"},{"internalType":"string","name":"description","type":"string"},{"internalType":"string","name":"inputData","type":"string"},{"internalType":"string","name":"expectedOutput","type":"string"},{"internalType":"uint256","name":"reward","type":"uint256"},{"internalType":"address","name":"paymentToken","type":"address"},{"internalType":"enum TaskContract.TaskType","name":"taskType","type":"uint8"},{"internalType":"enum TaskContract.TaskStatus","name":"status","type":"uint8"},{"internalType":"address","name":"agent","type":"address"},{"internalType":"string","name":"result","type":"string"},{"internalType":"uint256","name":"timeout","type":"uint256"},{"internalType":"uint256","name":"createdAt","type":"uint256"},{"internalType":"uint256","name":"acceptedAt","type":"uint256"},{"internalType":"uint256","name":"submittedAt","type":"uint256"},{"internalType":"uint256","name":"verifiedAt","type":"uint256"},{"internalType":"string","name":"disputeReason","type":"string"}],"stateMutability":"view","type":"function"},{"inputs":[{"internalType":"address","name":"newOwner","type":"address"}],"name":"transferOwnership","outputs":[],"stateMutability":"nonpayable","type":"function"},{"inputs":[],"name":"verificationEngine","outputs":[{"internalType":"address","name":"","type":"address"}],"stateMutability":"view","type":"function"},{"inputs":[{"internalType":"uint256","name":"taskId","type":"uint256"},{"internalType":"bool","name":"isValid","type":"bool"}],"name":"verifyResult","outputs":[],"stateMutability":"nonpayable","type":"function"}],"evm":{"bytecode":{"linkReferences":{},"object":"608080604052346100a257331561008c5760008054336001600160a01b03198216811783556040519290916001600160a01b0316907f8be0079c531659141344cd1fd0a4f28419497f9722a3daafe3b4186f6b6457e09080a360017f9b779b17422d0df92223018b32b4d1fa46e071723d6817e2486d003becc55f005560018055611e9390816100a88239f35b631e4fbdf760e01b815260006004820152602490fd5b600080fdfe6080604052600436101561001257600080fd5b60003560e01c80631bf6912d146119725780631d65e77e1461168a57806334b25ee2146115b457806351508f0a1461156757806368c4ac26146115285780636b4080fc146114515780636cfc1439146114285780636d69fcaf146113b35780636ea69d621461138a578063715018a6146113315780638c0dd79a1461116d5780638d97767214610fdf5780638da5cb5b14610fb6578063924e63f614610f695780639285c94b14610f3d578063b4f3626414610df2578063e1e2955814610c40578063e3a783f414610a95578063f2fde38b14610a0c578063f331a173146101b2578063f5a3f4af14610189578063f5b3a8531461013c5763fdc3d8d71461011957600080fd5b34610137576000366003190112610137576020600154604051908152f35b600080fd5b3461013757602036600319011261013757610155611ab1565b61015d611c5d565b6001600160a01b0316610171811515611c89565b6001600160601b0360a01b6005541617600555600080f35b34610137576000366003190112610137576006546040516001600160a01b039091168152602090f35b346101375760e0366003190112610137576004356001600160401b038111610137576101e2903690600401611ac7565b906024356001600160401b03811161013757610202903690600401611ac7565b6044929192356001600160401b03811161013757610224903690600401611ac7565b608435936001600160a01b038516850361013757600760a4351015610137576001600160a01b03851660009081526004602052604090205460ff16156109fa57606435156109e85760c435156109d6576040516323b872dd60e01b60009081523360045230602452606480356044526020919081806001600160a01b038b165af16001600051148116156109ad575b8160405260006060521561098f5750600154956000198714610979576103289461031061031c9360018a016001558960005260036020526064356040600020556040519a6103008c611b61565b8a8c523360208d01523691611cda565b60408a01523691611cda565b60608701523691611cda565b608084015260643560a08401526001600160a01b03811660c084015261034f60a435611a72565b60a43560e08401526000610100840152600061012084015260405161037381611b7d565b6000815261014084015260c4356101608401524261018084015260006101a084015260006101c084015260006101e08401526040516103b181611b7d565b600081526102008401528160005260026020526040600020835181556001810160018060a01b036020860151166001600160601b0360a01b82541617905560408401518051906001600160401b03821161078c5761041f826104166002860154611b27565b60028601611d11565b602090601f83116001146109075761045092916000918361071b575b50508160011b916000199060031b1c19161790565b60028201555b60608401518051906001600160401b03821161078c576104868261047d6003860154611b27565b60038601611d11565b602090601f8311600114610895576104b692916000918361071b5750508160011b916000199060031b1c19161790565b60038201555b60808401518051906001600160401b03821161078c576104ec826104e36004860154611b27565b60048601611d11565b602090601f83116001146108235761051c92916000918361071b5750508160011b916000199060031b1c19161790565b60048201555b60a0840151600582015560c084015160068201805460e087015191929091906001600160a01b031661055382611a72565b61055c82611a72565b61010088015161056b81611a72565b61057481611a72565b60ff60a81b9060a81b169269ffffffffffffffffffff60b01b16179060ff60a01b9060a01b16171790556007810160018060a01b03610120860151166001600160601b0360a01b8254161790556101408401518051906001600160401b03821161078c576105f2826105e96008860154611b27565b60088601611d11565b602090601f83116001146107ad5782600e936102009593610629936000926107a25750508160011b916000199060031b1c19161790565b60088201555b6101608601516009820155610180860151600a8201556101a0860151600b8201556101c0860151600c8201556101e0860151600d820155019301519283516001600160401b03811161078c576020946106928261068c8554611b27565b85611d11565b8590601f8311600114610726576106c192916000918361071b5750508160011b916000199060031b1c19161790565b90555b6040519060643582526106d860a435611a72565b60a435828501526001600160a01b031690339083907fa4700c8f171446582d94540997f0fb4365119258e7bc727ba4244b10b881fdfe90604090a4604051908152f35b01519050878061043b565b90601f1983169184600052876000209260005b818110610775575090846001959493921061075c575b505050811b0190556106c4565b015160001960f88460031b161c1916905586808061074f565b929389600181928786015181550195019301610739565b634e487b7160e01b600052604160045260246000fd5b01519050898061043b565b906008840160005260206000209160005b601f198516811061080b5750926102009492600192600e9583601f198116106107f2575b505050811b01600882015561062f565b015160001960f88460031b161c191690558880806107e2565b919260206001819286850151815501940192016107be565b9190600484016000526020600020906000935b601f198416851061087a576001945083601f19811610610861575b505050811b016004820155610522565b015160001960f88460031b161c19169055868080610851565b81810151835560209485019460019093019290910190610836565b9190600384016000526020600020906000935b601f19841685106108ec576001945083601f198116106108d3575b505050811b0160038201556104bc565b015160001960f88460031b161c191690558680806108c3565b818101518355602094850194600190930192909101906108a8565b9190600284016000526020600020906000935b601f198416851061095e576001945083601f19811610610945575b505050811b016002820155610456565b015160001960f88460031b161c19169055868080610935565b8181015183556020948501946001909301929091019061091a565b634e487b7160e01b600052601160045260246000fd5b635274afe760e01b81526001600160a01b0386166004820152602490fd5b60018115166109cc573d156001600160a01b0388163b151516166102b3565b503d6000823e3d90fd5b604051631ffb86f160e21b8152600490fd5b604051632706c9e160e21b8152600490fd5b60405163350b944160e11b8152600490fd5b3461013757602036600319011261013757610a25611ab1565b610a2d611c5d565b6001600160a01b03908116908115610a7c57600054826001600160601b0360a01b821617600055167f8be0079c531659141344cd1fd0a4f28419497f9722a3daafe3b4186f6b6457e0600080a3005b604051631e4fbdf760e01b815260006004820152602490fd5b3461013757610aa336611af4565b826000939293526020926002845260406000206006810190815491600560ff8460a81c16610ad081611a72565b03610c2e5760078201546001600160a01b03163303610c1c5760ff60a81b19909216600360a91b17909155600e016001600160401b03831161078c57610b2083610b1a8354611b27565b83611d11565b600094601f8411600114610b955750610b7383807f08824ea73fe0c710b8488bb1d0d50ab5b21b6019aa7eaebafbe0076e5f7ab9459697600091610b8a575b508160011b916000199060031b1c19161790565b90555b610b8560405192839283611d72565b0390a2005b905084013588610b5f565b601f198416958260005281600020916000905b888210610c04575050847f08824ea73fe0c710b8488bb1d0d50ab5b21b6019aa7eaebafbe0076e5f7ab945969710610bea575b5050600183811b019055610b76565b830135600019600386901b60f8161c191690558580610bdb565b80600184958294958901358155019401920190610ba8565b604051636bc59d9d60e01b8152600490fd5b604051631c7dcd2360e01b8152600490fd5b346101375760208060031936011261013757600435610c5d611e1b565b8060005260028252604060002060068101928354600360ff8260a81c16610c8381611a72565b03610de0576007546001600160a01b039190821615610dce5760ff60a81b1916600160aa1b1785556000848152600383526040812080549190558554600754919691610cd59188918516908516611d9a565b600782815416940193828086541692541690604051918583019363f825237360e01b8552886024850152604484015260648301528760848301526084825260c08201928284106001600160401b0385111761078c576000809493819460405251925af13d15610dc9573d610d4881611cbf565b90610d566040519283611b98565b81526000843d92013e5b15610db7577f843af93d40addceac6932508439844b897d4df9e971db326d557e3cdaa9f3ebf92541693604051908152a360017f9b779b17422d0df92223018b32b4d1fa46e071723d6817e2486d003becc55f0055005b604051632d9fea0b60e01b8152600490fd5b610d60565b60405163e4150c2d60e01b8152600490fd5b60405163298413eb60e01b8152600490fd5b3461013757602036600319011261013757600435610e0e611e1b565b80600052600260205260406000206006810180549160ff8360a81c16610e3381611a72565b80159081610f1f575b8115610ee9575b5015610ed75760ff60a81b19909216600560a81b17815560008381526003602052604081208054919055905460019290920154610e8c926001600160a01b039182169116611d9a565b7ffce55ec5676eb956882871569c26371646501a85341438169be11d577837fc72600080a260017f9b779b17422d0df92223018b32b4d1fa46e071723d6817e2486d003becc55f0055005b6040516329046dcd60e11b8152600490fd5b60019150610ef681611a72565b1480610f03575b85610e43565b50610f17600b820154600983015490611d65565b421015610efd565b9050610f34600a830154600984015490611d65565b42101590610e3c565b346101375760203660031901126101375760043560005260036020526020604060002054604051908152f35b3461013757602036600319011261013757610f82611ab1565b610f8a611c5d565b6001600160a01b0316610f9e811515611c89565b6001600160601b0360a01b6006541617600655600080f35b34610137576000366003190112610137576000546040516001600160a01b039091168152602090f35b346101375760203660031901126101375760043560005260026020526040600020805490600160a01b60019003600182015416906002810161102090611bb9565b9061102d60038201611bb9565b9061103a60048201611bb9565b6005820154600683015460078401546001600160a01b031694929161106160088601611bb9565b90600986015496600a87015493600b88015495600c89015497600d8a015499600e0161108c90611bb9565b9b6040519e8f9e8f906102209282526020820152816040820152016110b091611a32565b8d810360608f01526110c191611a32565b8c810360808e01526110d291611a32565b9260a08c0152600160a01b60019003811660c08c01528060a01c60ff166110f890611a72565b8060a01c60ff1660e08c01528060a81c60ff1661111490611a72565b60a81c60ff166101008b01526101208a01528881036101408a015261113891611a32565b946101608801526101808701526101a08601526101c08501526101e084015282810361020084015261116991611a32565b0390f35b346101375761117b36611af4565b826000939293526020926002845260406000206006810180549060ff8260a81c16916111a683611a72565b600180930361131f5760078401546001600160a01b03163303610c1c576111d6600b850154600986015490611d65565b42101561130d5760ff60a81b1916600160a91b17905560088201906001600160401b03851161078c576112138561120d8454611b27565b84611d11565b600096601f861160011461128957505061126684807f6446ced08d52e8f0331d94dbe32ad91d577ec02d6d8ec44376b1517fcca598a7979860009161127e57508160011b916000199060031b1c19161790565b90555b600c42910155610b8560405192839283611d72565b905085013589610b5f565b601f198616978360005281600020916000905b8a82106112f6575050867f6446ced08d52e8f0331d94dbe32ad91d577ec02d6d8ec44376b1517fcca598a79899106112dc575b505084811b019055611269565b850135600019600388901b60f8161c1916905587806112cf565b808584958294958b0135815501940192019061129c565b6040516375fd9e1d60e11b8152600490fd5b604051634374cc0560e11b8152600490fd5b346101375760003660031901126101375761134a611c5d565b600080546001600160a01b0319811682556001600160a01b03167f8be0079c531659141344cd1fd0a4f28419497f9722a3daafe3b4186f6b6457e08280a3005b34610137576000366003190112610137576007546040516001600160a01b039091168152602090f35b34610137576020366003190112610137576113cc611ab1565b6113d4611c5d565b6001600160a01b03166113e8811515611c89565b8060005260046020526040600020600160ff198254161790557f784c8f4dbf0ffedd6e72c76501c545a70f8b203b30a26ce542bf92ba87c248a4600080a2005b34610137576000366003190112610137576005546040516001600160a01b039091168152602090f35b346101375761145f36611a92565b6005546001600160a01b031633036115165781600052600260205260406000206006810191825491600260ff8460a81c1661149981611a72565b03611504577f83d78894b0f1822df158f015346461e6a79382c0ad68d7e0020fab92628d3e949360209383156114ef5750805460ff60a81b1916600360a81b17905542600d91909101555b6040519015158152a2005b60ff60a81b1916600560a81b179055506114e4565b6040516315fcfca760e21b8152600490fd5b60405163bef325f160e01b8152600490fd5b34610137576020366003190112610137576001600160a01b03611549611ab1565b166000526004602052602060ff604060002054166040519015158152f35b3461013757602036600319011261013757611580611ab1565b611588611c5d565b6001600160a01b031661159c811515611c89565b6001600160601b0360a01b6007541617600755600080f35b34610137576115c236611a92565b6006546001600160a01b031633036116785781600052600260205260406000206006810191825491600660ff8460a81c166115fc81611a72565b03611666577f5a87909bff68caaaaf0b3fd9c74eeccc928832f879315e5c6fb7a73612f26c0c93602093831561164a5750805460ff60a81b1916600560a81b179055506040519015158152a2005b60ff60a81b1916600360a81b17905542600d91909101556114e4565b604051630335c25360e21b8152600490fd5b60405163ed5ad75960e01b8152600490fd5b346101375760203660031901126101375760606102006040516116ac81611b61565b60008152600060208201528260408201528280820152826080820152600060a0820152600060c0820152600060e082015260006101008201526000610120820152826101408201526000610160820152600061018082015260006101a082015260006101c082015260006101e0820152015260043560005260026020526111696040600020611836600e6040519261174384611b61565b8054845260018101546001600160a01b0316602085015261176660028201611bb9565b604085015261177760038201611bb9565b606085015261178860048201611bb9565b6080850152600581015460a085015260ff600682015460018060a01b03811660c0870152818160a01c166117bb81611a72565b60e087015260a81c166117cd81611a72565b61010085015260078101546001600160a01b03166101208501526117f360088201611bb9565b6101408501526009810154610160850152600a810154610180850152600b8101546101a0850152600c8101546101c0850152600d8101546101e085015201611bb9565b610200820152604051918291602083528051602084015260018060a01b0360208201511660408401526102006119236118b261189c611886604086015161022060608a0152610240890190611a32565b6060860151888203601f190160808a0152611a32565b6080850151878203601f190160a0890152611a32565b60a084015160c087015260018060a01b0360c08501511660e087015260e08401516118dc81611a72565b6101008701526101008401516118f181611a72565b61012087015260018060a01b0361012085015116610140870152610140840151601f1987830301610160880152611a32565b916101608101516101808601526101808101516101a08601526101a08101516101c08601526101c08101516101e08601526101e0810151828601520151601f1984830301610220850152611a32565b3461013757602036600319011261013757600435806000526002602052604060002060068101805460ff8160a81c166119aa81611a72565b611a20576119c1600a840154600985015490611d65565b42101561130d5760ff60a81b1916600160a81b1790556007810180546001600160a01b0319163390811790915542600b90920191909155907fc8717b61398fb9d7cacf49fe1e296b2f10e9711226b532842b6ffd642cb6a2c6600080a3005b60405163fe89421760e01b8152600490fd5b919082519283825260005b848110611a5e575050826000602080949584010152601f8019910116010190565b602081830181015184830182015201611a3d565b60071115611a7c57565b634e487b7160e01b600052602160045260246000fd5b6040906003190112610137576004359060243580151581036101375790565b600435906001600160a01b038216820361013757565b9181601f84011215610137578235916001600160401b038311610137576020838186019501011161013757565b9060406003198301126101375760043591602435906001600160401b03821161013757611b2391600401611ac7565b9091565b90600182811c92168015611b57575b6020831014611b4157565b634e487b7160e01b600052602260045260246000fd5b91607f1691611b36565b61022081019081106001600160401b0382111761078c57604052565b602081019081106001600160401b0382111761078c57604052565b90601f801991011681019081106001600160401b0382111761078c57604052565b90604051918260008254611bcc81611b27565b908184526020946001918281169081600014611c3b5750600114611bfc575b505050611bfa92500383611b98565b565b600090815285812095935091905b818310611c23575050611bfa9350820101388080611beb565b85548884018501529485019487945091830191611c0a565b92505050611bfa94925060ff191682840152151560051b820101388080611beb565b6000546001600160a01b03163303611c7157565b60405163118cdaa760e01b8152336004820152602490fd5b15611c9057565b60405162461bcd60e51b8152602060048201526007602482015266125b9d985b1a5960ca1b6044820152606490fd5b6001600160401b03811161078c57601f01601f191660200190565b929192611ce682611cbf565b91611cf46040519384611b98565b829481845281830111610137578281602093846000960137010152565b90601f8111611d1f57505050565b600091825260208220906020601f850160051c83019410611d5b575b601f0160051c01915b828110611d5057505050565b818155600101611d44565b9092508290611d3b565b9190820180921161097957565b90918060409360208452816020850152848401376000828201840152601f01601f1916010190565b60405163a9059cbb60e01b60009081526001600160a01b039384166004526024949094529260209060448180855af1600160005114811615611dfb575b8360405215611de557505050565b635274afe760e01b835216600482015260249150fd5b6001811516611e1157813b15153d151616611dd7565b833d6000823e3d90fd5b7f9b779b17422d0df92223018b32b4d1fa46e071723d6817e2486d003becc55f006002815414611e4b5760029055565b604051633ee5aeb560e01b8152600490fdfea2646970667358221220923751a5ee618c3a450fad599290f0a874a6c203e9f5a748cecd8ecbd9bdd18064736f6c63430008150033","opcodes":"PUSH1 0x80 DUP1 PUSH1 0x40 MSTORE CALLVALUE PUSH2 0xA2 JUMPI CALLER ISZERO PUSH2 0x8C JUMPI PUSH1 0x0 DUP1 SLOAD CALLER PUSH1 0x1 PUSH1 0x1 PUSH1 0xA0 SHL SUB NOT DUP3 AND DUP2 OR DUP4 SSTORE PUSH1 0x40 MLOAD SWAP3 SWAP1 SWAP2 PUSH1 0x1 PUSH1 0x1 PUSH1 0xA0 SHL SUB AND SWAP1 PUSH32 0x8BE0079C531659141344CD1FD0A4F28419497F9722A3DAAFE3B4186F6B6457E0 SWAP1 DUP1 LOG3 PUSH1 0x1 PUSH32 0x9B779B17422D0DF92223018B32B4D1FA46E071723D6817E2486D003BECC55F00 SSTORE PUSH1 0x1 DUP1 SSTORE PUSH2 0x1E93 SWAP1 DUP2 PUSH2 0xA8 DUP3 CODECOPY RETURN JUMPDEST PUSH4 0x1E4FBDF7 PUSH1 0xE0 SHL DUP2 MSTORE PUSH1 0x0 PUSH1 0x4 DUP3 ADD MSTORE PUSH1 0x24 SWAP1 REVERT JUMPDEST PUSH1 0x0 DUP1 REVERT INVALID PUSH1 0x80 PUSH1 0x40 MSTORE PUSH1 0x4 CALLDATASIZE LT ISZERO PUSH2 0x12 JUMPI PUSH1 0x0 DUP1 REVERT JUMPDEST PUSH1 0x0 CALLDATALOAD PUSH1 0xE0 SHR DUP1 PUSH4 0x1BF6912D EQ PUSH2 0x1972 JUMPI DUP1 PUSH4 0x1D65E77E EQ PUSH2 0x168A JUMPI DUP1 PUSH4 0x34B25EE2 EQ PUSH2 0x15B4 JUMPI DUP1 PUSH4 0x51508F0A EQ PUSH2 0x1567 JUMPI DUP1 PUSH4 0x68C4AC26 EQ PUSH2 0x1528 JUMPI DUP1 PUSH4 0x6B4080FC EQ PUSH2 0x1451 JUMPI DUP1 PUSH4 0x6CFC1439 EQ PUSH2 0x1428 JUMPI DUP1 PUSH4 0x6D69FCAF EQ PUSH2 0x13B3 JUMPI DUP1 PUSH4 0x6EA69D62 EQ PUSH2 0x138A JUMPI DUP1 PUSH4 0x715018A6 EQ PUSH2 0x1331 JUMPI DUP1 PUSH4 0x8C0DD79A EQ PUSH2 0x116D JUMPI DUP1 PUSH4 0x8D977672 EQ PUSH2 0xFDF JUMPI DUP1 PUSH4 0x8DA5CB5B EQ PUSH2 0xFB6 JUMPI DUP1 PUSH4 0x924E63F6 EQ PUSH2 0xF69 JUMPI DUP1 PUSH4 0x9285C94B EQ PUSH2 0xF3D JUMPI DUP1 PUSH4 0xB4F36264 EQ PUSH2 0xDF2 JUMPI DUP1 PUSH4 0xE1E29558 EQ PUSH2 0xC40 JUMPI DUP1 PUSH4 0xE3A783F4 EQ PUSH2 0xA95 JUMPI DUP1 PUSH4 0xF2FDE38B EQ PUSH2 0xA0C JUMPI DUP1 PUSH4 0xF331A173 EQ PUSH2 0x1B2 JUMPI DUP1 PUSH4 0xF5A3F4AF EQ PUSH2 0x189 JUMPI DUP1 PUSH4 0xF5B3A853 EQ PUSH2 0x13C JUMPI PUSH4 0xFDC3D8D7 EQ PUSH2 0x119 JUMPI PUSH1 0x0 DUP1 REVERT JUMPDEST CALLVALUE PUSH2 0x137 JUMPI PUSH1 0x0 CALLDATASIZE PUSH1 0x3 NOT ADD SLT PUSH2 0x137 JUMPI PUSH1 0x20 PUSH1 0x1 SLOAD PUSH1 0x40 MLOAD SWAP1 DUP2 MSTORE RETURN JUMPDEST PUSH1 0x0 DUP1 REVERT JUMPDEST CALLVALUE PUSH2 0x137 JUMPI PUSH1 0x20 CALLDATASIZE PUSH1 0x3 NOT ADD SLT PUSH2 0x137 JUMPI PUSH2 0x155 PUSH2 0x1AB1 JUMP JUMPDEST PUSH2 0x15D PUSH2 0x1C5D JUMP JUMPDEST PUSH1 0x1 PUSH1 0x1 PUSH1 0xA0 SHL SUB AND PUSH2 0x171 DUP2 ISZERO ISZERO PUSH2 0x1C89 JUMP JUMPDEST PUSH1 0x1 PUSH1 0x1 PUSH1 0x60 SHL SUB PUSH1 0xA0 SHL PUSH1 0x5 SLOAD AND OR PUSH1 0x5 SSTORE PUSH1 0x0 DUP1 RETURN JUMPDEST CALLVALUE PUSH2 0x137 JUMPI PUSH1 0x0 CALLDATASIZE PUSH1 0x3 NOT ADD SLT PUSH2 0x137 JUMPI PUSH1 0x6 SLOAD PUSH1 0x40 MLOAD PUSH1 0x1 PUSH1 0x1 PUSH1 0xA0 SHL SUB SWAP1 SWAP2 AND DUP2 MSTORE PUSH1 0x20 SWAP1 RETURN JUMPDEST CALLVALUE PUSH2 0x137 JUMPI PUSH1 0xE0 CALLDATASIZE PUSH1 0x3 NOT ADD SLT PUSH2 0x137 JUMPI PUSH1 0x4 CALLDATALOAD PUSH1 0x1 PUSH1 0x1 PUSH1 0x40 SHL SUB DUP2 GT PUSH2 0x137 JUMPI PUSH2 0x1E2 SWAP1 CALLDATASIZE SWAP1 PUSH1 0x4 ADD PUSH2 0x1AC7 JUMP JUMPDEST SWAP1 PUSH1 0x24 CALLDATALOAD PUSH1 0x1 PUSH1 0x1 PUSH1 0x40 SHL SUB DUP2 GT PUSH2 0x137 JUMPI PUSH2 0x202 SWAP1 CALLDATASIZE SWAP1 PUSH1 0x4 ADD PUSH2 0x1AC7 JUMP JUMPDEST PUSH1 0x44 SWAP3 SWAP2 SWAP3 CALLDATALOAD PUSH1 0x1 PUSH1 0x1 PUSH1 0x40 SHL SUB DUP2 GT PUSH2 0x137 JUMPI PUSH2 0x224 SWAP1 CALLDATASIZE SWAP1 PUSH1 0x4 ADD PUSH2 0x1AC7 JUMP JUMPDEST PUSH1 0x84 CALLDATALOAD SWAP4 PUSH1 0x1 PUSH1 0x1 PUSH1 0xA0 SHL SUB DUP6 AND DUP6 SUB PUSH2 0x137 JUMPI PUSH1 0x7 PUSH1 0xA4 CALLDATALOAD LT ISZERO PUSH2 0x137 JUMPI PUSH1 0x1 PUSH1 0x1 PUSH1 0xA0 SHL SUB DUP6 AND PUSH1 0x0 SWAP1 DUP2 MSTORE PUSH1 0x4 PUSH1 0x20 MSTORE PUSH1 0x40 SWAP1 KECCAK256 SLOAD PUSH1 0xFF AND ISZERO PUSH2 0x9FA JUMPI PUSH1 0x64 CALLDATALOAD ISZERO PUSH2 0x9E8 JUMPI PUSH1 0xC4 CALLDATALOAD ISZERO PUSH2 0x9D6 JUMPI PUSH1 0x40 MLOAD PUSH4 0x23B872DD PUSH1 0xE0 SHL PUSH1 0x0 SWAP1 DUP2 MSTORE CALLER PUSH1 0x4 MSTORE ADDRESS PUSH1 0x24 MSTORE PUSH1 0x64 DUP1 CALLDATALOAD PUSH1 0x44 MSTORE PUSH1 0x20 SWAP2 SWAP1 DUP2 DUP1 PUSH1 0x1 PUSH1 0x1 PUSH1 0xA0 SHL SUB DUP12 AND GAS CALL PUSH1 0x1 PUSH1 0x0 MLOAD EQ DUP2 AND ISZERO PUSH2 0x9AD JUMPI JUMPDEST DUP2 PUSH1 0x40 MSTORE PUSH1 0x0 PUSH1 0x60 MSTORE ISZERO PUSH2 0x98F JUMPI POP PUSH1 0x1 SLOAD SWAP6 PUSH1 0x0 NOT DUP8 EQ PUSH2 0x979 JUMPI PUSH2 0x328 SWAP5 PUSH2 0x310 PUSH2 0x31C SWAP4 PUSH1 0x1 DUP11 ADD PUSH1 0x1 SSTORE DUP10 PUSH1 0x0 MSTORE PUSH1 0x3 PUSH1 0x20 MSTORE PUSH1 0x64 CALLDATALOAD PUSH1 0x40 PUSH1 0x0 KECCAK256 SSTORE PUSH1 0x40 MLOAD SWAP11 PUSH2 0x300 DUP13 PUSH2 0x1B61 JUMP JUMPDEST DUP11 DUP13 MSTORE CALLER PUSH1 0x20 DUP14 ADD MSTORE CALLDATASIZE SWAP2 PUSH2 0x1CDA JUMP JUMPDEST PUSH1 0x40 DUP11 ADD MSTORE CALLDATASIZE SWAP2 PUSH2 0x1CDA JUMP JUMPDEST PUSH1 0x60 DUP8 ADD MSTORE CALLDATASIZE SWAP2 PUSH2 0x1CDA JUMP JUMPDEST PUSH1 0x80 DUP5 ADD MSTORE PUSH1 0x64 CALLDATALOAD PUSH1 0xA0 DUP5 ADD MSTORE PUSH1 0x1 PUSH1 0x1 PUSH1 0xA0 SHL SUB DUP2 AND PUSH1 0xC0 DUP5 ADD MSTORE PUSH2 0x34F PUSH1 0xA4 CALLDATALOAD PUSH2 0x1A72 JUMP JUMPDEST PUSH1 0xA4 CALLDATALOAD PUSH1 0xE0 DUP5 ADD MSTORE PUSH1 0x0 PUSH2 0x100 DUP5 ADD MSTORE PUSH1 0x0 PUSH2 0x120 DUP5 ADD MSTORE PUSH1 0x40 MLOAD PUSH2 0x373 DUP2 PUSH2 0x1B7D JUMP JUMPDEST PUSH1 0x0 DUP2 MSTORE PUSH2 0x140 DUP5 ADD MSTORE PUSH1 0xC4 CALLDATALOAD PUSH2 0x160 DUP5 ADD MSTORE TIMESTAMP PUSH2 0x180 DUP5 ADD MSTORE PUSH1 0x0 PUSH2 0x1A0 DUP5 ADD MSTORE PUSH1 0x0 PUSH2 0x1C0 DUP5 ADD MSTORE PUSH1 0x0 PUSH2 0x1E0 DUP5 ADD MSTORE PUSH1 0x40 MLOAD PUSH2 0x3B1 DUP2 PUSH2 0x1B7D JUMP JUMPDEST PUSH1 0x0 DUP2 MSTORE PUSH2 0x200 DUP5 ADD MSTORE DUP2 PUSH1 0x0 MSTORE PUSH1 0x2 PUSH1 0x20 MSTORE PUSH1 0x40 PUSH1 0x0 KECCAK256 DUP4 MLOAD DUP2 SSTORE PUSH1 0x1 DUP2 ADD PUSH1 0x1 DUP1 PUSH1 0xA0 SHL SUB PUSH1 0x20 DUP7 ADD MLOAD AND PUSH1 0x1 PUSH1 0x1 PUSH1 0x60 SHL SUB PUSH1 0xA0 SHL DUP3 SLOAD AND OR SWAP1 SSTORE PUSH1 0x40 DUP5 ADD MLOAD DUP1 MLOAD SWAP1 PUSH1 0x1 PUSH1 0x1 PUSH1 0x40 SHL SUB DUP3 GT PUSH2 0x78C JUMPI PUSH2 0x41F DUP3 PUSH2 0x416 PUSH1 0x2 DUP7 ADD SLOAD PUSH2 0x1B27 JUMP JUMPDEST PUSH1 0x2 DUP7 ADD PUSH2 0x1D11 JUMP JUMPDEST PUSH1 0x20 SWAP1 PUSH1 0x1F DUP4 GT PUSH1 0x1 EQ PUSH2 0x907 JUMPI PUSH2 0x450 SWAP3 SWAP2 PUSH1 0x0 SWAP2 DUP4 PUSH2 0x71B JUMPI JUMPDEST POP POP DUP2 PUSH1 0x1 SHL SWAP2 PUSH1 0x0 NOT SWAP1 PUSH1 0x3 SHL SHR NOT AND OR SWAP1 JUMP JUMPDEST PUSH1 0x2 DUP3 ADD SSTORE JUMPDEST PUSH1 0x60 DUP5 ADD MLOAD DUP1 MLOAD SWAP1 PUSH1 0x1 PUSH1 0x1 PUSH1 0x40 SHL SUB DUP3 GT PUSH2 0x78C JUMPI PUSH2 0x486 DUP3 PUSH2 0x47D PUSH1 0x3 DUP7 ADD SLOAD PUSH2 0x1B27 JUMP JUMPDEST PUSH1 0x3 DUP7 ADD PUSH2 0x1D11 JUMP JUMPDEST PUSH1 0x20 SWAP1 PUSH1 0x1F DUP4 GT PUSH1 0x1 EQ PUSH2 0x895 JUMPI PUSH2 0x4B6 SWAP3 SWAP2 PUSH1 0x0 SWAP2 DUP4 PUSH2 0x71B JUMPI POP POP DUP2 PUSH1 0x1 SHL SWAP2 PUSH1 0x0 NOT SWAP1 PUSH1 0x3 SHL SHR NOT AND OR SWAP1 JUMP JUMPDEST PUSH1 0x3 DUP3 ADD SSTORE JUMPDEST PUSH1 0x80 DUP5 ADD MLOAD DUP1 MLOAD SWAP1 PUSH1 0x1 PUSH1 0x1 PUSH1 0x40 SHL SUB DUP3 GT PUSH2 0x78C JUMPI PUSH2 0x4EC DUP3 PUSH2 0x4E3 PUSH1 0x4 DUP7 ADD SLOAD PUSH2 0x1B27 JUMP JUMPDEST PUSH1 0x4 DUP7 ADD PUSH2 0x1D11 JUMP JUMPDEST PUSH1 0x20 SWAP1 PUSH1 0x1F DUP4 GT PUSH1 0x1 EQ PUSH2 0x823 JUMPI PUSH2 0x51C SWAP3 SWAP2 PUSH1 0x0 SWAP2 DUP4 PUSH2 0x71B JUMPI POP POP DUP2 PUSH1 0x1 SHL SWAP2 PUSH1 0x0 NOT SWAP1 PUSH1 0x3 SHL SHR NOT AND OR SWAP1 JUMP JUMPDEST PUSH1 0x4 DUP3 ADD SSTORE JUMPDEST PUSH1 0xA0 DUP5 ADD MLOAD PUSH1 0x5 DUP3 ADD SSTORE PUSH1 0xC0 DUP5 ADD MLOAD PUSH1 0x6 DUP3 ADD DUP1 SLOAD PUSH1 0xE0 DUP8 ADD MLOAD SWAP2 SWAP3 SWAP1 SWAP2 SWAP1 PUSH1 0x1 PUSH1 0x1 PUSH1 0xA0 SHL SUB AND PUSH2 0x553 DUP3 PUSH2 0x1A72 JUMP JUMPDEST PUSH2 0x55C DUP3 PUSH2 0x1A72 JUMP JUMPDEST PUSH2 0x100 DUP9 ADD MLOAD PUSH2 0x56B DUP2 PUSH2 0x1A72 JUMP JUMPDEST PUSH2 0x574 DUP2 PUSH2 0x1A72 JUMP JUMPDEST PUSH1 0xFF PUSH1 0xA8 SHL SWAP1 PUSH1 0xA8 SHL AND SWAP3 PUSH10 0xFFFFFFFFFFFFFFFFFFFF PUSH1 0xB0 SHL AND OR SWAP1 PUSH1 0xFF PUSH1 0xA0 SHL SWAP1 PUSH1 0xA0 SHL AND OR OR SWAP1 SSTORE PUSH1 0x7 DUP2 ADD PUSH1 0x1 DUP1 PUSH1 0xA0 SHL SUB PUSH2 0x120 DUP7 ADD MLOAD AND PUSH1 0x1 PUSH1 0x1 PUSH1 0x60 SHL SUB PUSH1 0xA0 SHL DUP3 SLOAD AND OR SWAP1 SSTORE PUSH2 0x140 DUP5 ADD MLOAD DUP1 MLOAD SWAP1 PUSH1 0x1 PUSH1 0x1 PUSH1 0x40 SHL SUB DUP3 GT PUSH2 0x78C JUMPI PUSH2 0x5F2 DUP3 PUSH2 0x5E9 PUSH1 0x8 DUP7 ADD SLOAD PUSH2 0x1B27 JUMP JUMPDEST PUSH1 0x8 DUP7 ADD PUSH2 0x1D11 JUMP JUMPDEST PUSH1 0x20 SWAP1 PUSH1 0x1F DUP4 GT PUSH1 0x1 EQ PUSH2 0x7AD JUMPI DUP3 PUSH1 0xE SWAP4 PUSH2 0x200 SWAP6 SWAP4 PUSH2 0x629 SWAP4 PUSH1 0x0 SWAP3 PUSH2 0x7A2 JUMPI POP POP DUP2 PUSH1 0x1 SHL SWAP2 PUSH1 0x0 NOT SWAP1 PUSH1 0x3 SHL SHR NOT AND OR SWAP1 JUMP JUMPDEST PUSH1 0x8 DUP3 ADD SSTORE JUMPDEST PUSH2 0x160 DUP7 ADD MLOAD PUSH1 0x9 DUP3 ADD SSTORE PUSH2 0x180 DUP7 ADD MLOAD PUSH1 0xA DUP3 ADD SSTORE PUSH2 0x1A0 DUP7 ADD MLOAD PUSH1 0xB DUP3 ADD SSTORE PUSH2 0x1C0 DUP7 ADD MLOAD PUSH1 0xC DUP3 ADD SSTORE PUSH2 0x1E0 DUP7 ADD MLOAD PUSH1 0xD DUP3 ADD SSTORE ADD SWAP4 ADD MLOAD SWAP3 DUP4 MLOAD PUSH1 0x1 PUSH1 0x1 PUSH1 0x40 SHL SUB DUP2 GT PUSH2 0x78C JUMPI PUSH1 0x20 SWAP5 PUSH2 0x692 DUP3 PUSH2 0x68C DUP6 SLOAD PUSH2 0x1B27 JUMP JUMPDEST DUP6 PUSH2 0x1D11 JUMP JUMPDEST DUP6 SWAP1 PUSH1 0x1F DUP4 GT PUSH1 0x1 EQ PUSH2 0x726 JUMPI PUSH2 0x6C1 SWAP3 SWAP2 PUSH1 0x0 SWAP2 DUP4 PUSH2 0x71B JUMPI POP POP DUP2 PUSH1 0x1 SHL SWAP2 PUSH1 0x0 NOT SWAP1 PUSH1 0x3 SHL SHR NOT AND OR SWAP1 JUMP JUMPDEST SWAP1 SSTORE JUMPDEST PUSH1 0x40 MLOAD SWAP1 PUSH1 0x64 CALLDATALOAD DUP3 MSTORE PUSH2 0x6D8 PUSH1 0xA4 CALLDATALOAD PUSH2 0x1A72 JUMP JUMPDEST PUSH1 0xA4 CALLDATALOAD DUP3 DUP6 ADD MSTORE PUSH1 0x1 PUSH1 0x1 PUSH1 0xA0 SHL SUB AND SWAP1 CALLER SWAP1 DUP4 SWAP1 PUSH32 0xA4700C8F171446582D94540997F0FB4365119258E7BC727BA4244B10B881FDFE SWAP1 PUSH1 0x40 SWAP1 LOG4 PUSH1 0x40 MLOAD SWAP1 DUP2 MSTORE RETURN JUMPDEST ADD MLOAD SWAP1 POP DUP8 DUP1 PUSH2 0x43B JUMP JUMPDEST SWAP1 PUSH1 0x1F NOT DUP4 AND SWAP2 DUP5 PUSH1 0x0 MSTORE DUP8 PUSH1 0x0 KECCAK256 SWAP3 PUSH1 0x0 JUMPDEST DUP2 DUP2 LT PUSH2 0x775 JUMPI POP SWAP1 DUP5 PUSH1 0x1 SWAP6 SWAP5 SWAP4 SWAP3 LT PUSH2 0x75C JUMPI JUMPDEST POP POP POP DUP2 SHL ADD SWAP1 SSTORE PUSH2 0x6C4 JUMP JUMPDEST ADD MLOAD PUSH1 0x0 NOT PUSH1 0xF8 DUP5 PUSH1 0x3 SHL AND SHR NOT AND SWAP1 SSTORE DUP7 DUP1 DUP1 PUSH2 0x74F JUMP JUMPDEST SWAP3 SWAP4 DUP10 PUSH1 0x1 DUP2 SWAP3 DUP8 DUP7 ADD MLOAD DUP2 SSTORE ADD SWAP6 ADD SWAP4 ADD PUSH2 0x739 JUMP JUMPDEST PUSH4 0x4E487B71 PUSH1 0xE0 SHL PUSH1 0x0 MSTORE PUSH1 0x41 PUSH1 0x4 MSTORE PUSH1 0x24 PUSH1 0x0 REVERT JUMPDEST ADD MLOAD SWAP1 POP DUP10 DUP1 PUSH2 0x43B JUMP JUMPDEST SWAP1 PUSH1 0x8 DUP5 ADD PUSH1 0x0 MSTORE PUSH1 0x20 PUSH1 0x0 KECCAK256 SWAP2 PUSH1 0x0 JUMPDEST PUSH1 0x1F NOT DUP6 AND DUP2 LT PUSH2 0x80B JUMPI POP SWAP3 PUSH2 0x200 SWAP5 SWAP3 PUSH1 0x1 SWAP3 PUSH1 0xE SWAP6 DUP4 PUSH1 0x1F NOT DUP2 AND LT PUSH2 0x7F2 JUMPI JUMPDEST POP POP POP DUP2 SHL ADD PUSH1 0x8 DUP3 ADD SSTORE PUSH2 0x62F JUMP JUMPDEST ADD MLOAD PUSH1 0x0 NOT PUSH1 0xF8 DUP5 PUSH1 0x3 SHL AND SHR NOT AND SWAP1 SSTORE DUP9 DUP1 DUP1 PUSH2 0x7E2 JUMP JUMPDEST SWAP2 SWAP3 PUSH1 0x20 PUSH1 0x1 DUP2 SWAP3 DUP7 DUP6 ADD MLOAD DUP2 SSTORE ADD SWAP5 ADD SWAP3 ADD PUSH2 0x7BE JUMP JUMPDEST SWAP2 SWAP1 PUSH1 0x4 DUP5 ADD PUSH1 0x0 MSTORE PUSH1 0x20 PUSH1 0x0 KECCAK256 SWAP1 PUSH1 0x0 SWAP4 JUMPDEST PUSH1 0x1F NOT DUP5 AND DUP6 LT PUSH2 0x87A JUMPI PUSH1 0x1 SWAP5 POP DUP4 PUSH1 0x1F NOT DUP2 AND LT PUSH2 0x861 JUMPI JUMPDEST POP POP POP DUP2 SHL ADD PUSH1 0x4 DUP3 ADD SSTORE PUSH2 0x522 JUMP JUMPDEST ADD MLOAD PUSH1 0x0 NOT PUSH1 0xF8 DUP5 PUSH1 0x3 SHL AND SHR NOT AND SWAP1 SSTORE DUP7 DUP1 DUP1 PUSH2 0x851 JUMP JUMPDEST DUP2 DUP2 ADD MLOAD DUP4 SSTORE PUSH1 0x20 SWAP5 DUP6 ADD SWAP5 PUSH1 0x1 SWAP1 SWAP4 ADD SWAP3 SWAP1 SWAP2 ADD SWAP1 PUSH2 0x836 JUMP JUMPDEST SWAP2 SWAP1 PUSH1 0x3 DUP5 ADD PUSH1 0x0 MSTORE PUSH1 0x20 PUSH1 0x0 KECCAK256 SWAP1 PUSH1 0x0 SWAP4 JUMPDEST PUSH1 0x1F NOT DUP5 AND DUP6 LT PUSH2 0x8EC JUMPI PUSH1 0x1 SWAP5 POP DUP4 PUSH1 0x1F NOT DUP2 AND LT PUSH2 0x8D3 JUMPI JUMPDEST POP POP POP DUP2 SHL ADD PUSH1 0x3 DUP3 ADD SSTORE PUSH2 0x4BC JUMP JUMPDEST ADD MLOAD PUSH1 0x0 NOT PUSH1 0xF8 DUP5 PUSH1 0x3 SHL AND SHR NOT AND SWAP1 SSTORE DUP7 DUP1 DUP1 PUSH2 0x8C3 JUMP JUMPDEST DUP2 DUP2 ADD MLOAD DUP4 SSTORE PUSH1 0x20 SWAP5 DUP6 ADD SWAP5 PUSH1 0x1 SWAP1 SWAP4 ADD SWAP3 SWAP1 SWAP2 ADD SWAP1 PUSH2 0x8A8 JUMP JUMPDEST SWAP2 SWAP1 PUSH1 0x2 DUP5 ADD PUSH1 0x0 MSTORE PUSH1 0x20 PUSH1 0x0 KECCAK256 SWAP1 PUSH1 0x0 SWAP4 JUMPDEST PUSH1 0x1F NOT DUP5 AND DUP6 LT PUSH2 0x95E JUMPI PUSH1 0x1 SWAP5 POP DUP4 PUSH1 0x1F NOT DUP2 AND LT PUSH2 0x945 JUMPI JUMPDEST POP POP POP DUP2 SHL ADD PUSH1 0x2 DUP3 ADD SSTORE PUSH2 0x456 JUMP JUMPDEST ADD MLOAD PUSH1 0x0 NOT PUSH1 0xF8 DUP5 PUSH1 0x3 SHL AND SHR NOT AND SWAP1 SSTORE DUP7 DUP1 DUP1 PUSH2 0x935 JUMP JUMPDEST DUP2 DUP2 ADD MLOAD DUP4 SSTORE PUSH1 0x20 SWAP5 DUP6 ADD SWAP5 PUSH1 0x1 SWAP1 SWAP4 ADD SWAP3 SWAP1 SWAP2 ADD SWAP1 PUSH2 0x91A JUMP JUMPDEST PUSH4 0x4E487B71 PUSH1 0xE0 SHL PUSH1 0x0 MSTORE PUSH1 0x11 PUSH1 0x4 MSTORE PUSH1 0x24 PUSH1 0x0 REVERT JUMPDEST PUSH4 0x5274AFE7 PUSH1 0xE0 SHL DUP2 MSTORE PUSH1 0x1 PUSH1 0x1 PUSH1 0xA0 SHL SUB DUP7 AND PUSH1 0x4 DUP3 ADD MSTORE PUSH1 0x24 SWAP1 REVERT JUMPDEST PUSH1 0x1 DUP2 ISZERO AND PUSH2 0x9CC JUMPI RETURNDATASIZE ISZERO PUSH1 0x1 PUSH1 0x1 PUSH1 0xA0 SHL SUB DUP9 AND EXTCODESIZE ISZERO ISZERO AND AND PUSH2 0x2B3 JUMP JUMPDEST POP RETURNDATASIZE PUSH1 0x0 DUP3 RETURNDATACOPY RETURNDATASIZE SWAP1 REVERT JUMPDEST PUSH1 0x40 MLOAD PUSH4 0x1FFB86F1 PUSH1 0xE2 SHL DUP2 MSTORE PUSH1 0x4 SWAP1 REVERT JUMPDEST PUSH1 0x40 MLOAD PUSH4 0x2706C9E1 PUSH1 0xE2 SHL DUP2 MSTORE PUSH1 0x4 SWAP1 REVERT JUMPDEST PUSH1 0x40 MLOAD PUSH4 0x350B9441 PUSH1 0xE1 SHL DUP2 MSTORE PUSH1 0x4 SWAP1 REVERT JUMPDEST CALLVALUE PUSH2 0x137 JUMPI PUSH1 0x20 CALLDATASIZE PUSH1 0x3 NOT ADD SLT PUSH2 0x137 JUMPI PUSH2 0xA25 PUSH2 0x1AB1 JUMP JUMPDEST PUSH2 0xA2D PUSH2 0x1C5D JUMP JUMPDEST PUSH1 0x1 PUSH1 0x1 PUSH1 0xA0 SHL SUB SWAP1 DUP2 AND SWAP1 DUP2 ISZERO PUSH2 0xA7C JUMPI PUSH1 0x0 SLOAD DUP3 PUSH1 0x1 PUSH1 0x1 PUSH1 0x60 SHL SUB PUSH1 0xA0 SHL DUP3 AND OR PUSH1 0x0 SSTORE AND PUSH32 0x8BE0079C531659141344CD1FD0A4F28419497F9722A3DAAFE3B4186F6B6457E0 PUSH1 0x0 DUP1 LOG3 STOP JUMPDEST PUSH1 0x40 MLOAD PUSH4 0x1E4FBDF7 PUSH1 0xE0 SHL DUP2 MSTORE PUSH1 0x0 PUSH1 0x4 DUP3 ADD MSTORE PUSH1 0x24 SWAP1 REVERT JUMPDEST CALLVALUE PUSH2 0x137 JUMPI PUSH2 0xAA3 CALLDATASIZE PUSH2 0x1AF4 JUMP JUMPDEST DUP3 PUSH1 0x0 SWAP4 SWAP3 SWAP4 MSTORE PUSH1 0x20 SWAP3 PUSH1 0x2 DUP5 MSTORE PUSH1 0x40 PUSH1 0x0 KECCAK256 PUSH1 0x6 DUP2 ADD SWAP1 DUP2 SLOAD SWAP2 PUSH1 0x5 PUSH1 0xFF DUP5 PUSH1 0xA8 SHR AND PUSH2 0xAD0 DUP2 PUSH2 0x1A72 JUMP JUMPDEST SUB PUSH2 0xC2E JUMPI PUSH1 0x7 DUP3 ADD SLOAD PUSH1 0x1 PUSH1 0x1 PUSH1 0xA0 SHL SUB AND CALLER SUB PUSH2 0xC1C JUMPI PUSH1 0xFF PUSH1 0xA8 SHL NOT SWAP1 SWAP3 AND PUSH1 0x3 PUSH1 0xA9 SHL OR SWAP1 SWAP2 SSTORE PUSH1 0xE ADD PUSH1 0x1 PUSH1 0x1 PUSH1 0x40 SHL SUB DUP4 GT PUSH2 0x78C JUMPI PUSH2 0xB20 DUP4 PUSH2 0xB1A DUP4 SLOAD PUSH2 0x1B27 JUMP JUMPDEST DUP4 PUSH2 0x1D11 JUMP JUMPDEST PUSH1 0x0 SWAP5 PUSH1 0x1F DUP5 GT PUSH1 0x1 EQ PUSH2 0xB95 JUMPI POP PUSH2 0xB73 DUP4 DUP1 PUSH32 0x8824EA73FE0C710B8488BB1D0D50AB5B21B6019AA7EAEBAFBE0076E5F7AB945 SWAP7 SWAP8 PUSH1 0x0 SWAP2 PUSH2 0xB8A JUMPI JUMPDEST POP DUP2 PUSH1 0x1 SHL SWAP2 PUSH1 0x0 NOT SWAP1 PUSH1 0x3 SHL SHR NOT AND OR SWAP1 JUMP JUMPDEST SWAP1 SSTORE JUMPDEST PUSH2 0xB85 PUSH1 0x40 MLOAD SWAP3 DUP4 SWAP3 DUP4 PUSH2 0x1D72 JUMP JUMPDEST SUB SWAP1 LOG2 STOP JUMPDEST SWAP1 POP DUP5 ADD CALLDATALOAD DUP9 PUSH2 0xB5F JUMP JUMPDEST PUSH1 0x1F NOT DUP5 AND SWAP6 DUP3 PUSH1 0x0 MSTORE DUP2 PUSH1 0x0 KECCAK256 SWAP2 PUSH1 0x0 SWAP1 JUMPDEST DUP9 DUP3 LT PUSH2 0xC04 JUMPI POP POP DUP5 PUSH32 0x8824EA73FE0C710B8488BB1D0D50AB5B21B6019AA7EAEBAFBE0076E5F7AB945 SWAP7 SWAP8 LT PUSH2 0xBEA JUMPI JUMPDEST POP POP PUSH1 0x1 DUP4 DUP2 SHL ADD SWAP1 SSTORE PUSH2 0xB76 JUMP JUMPDEST DUP4 ADD CALLDATALOAD PUSH1 0x0 NOT PUSH1 0x3 DUP7 SWAP1 SHL PUSH1 0xF8 AND SHR NOT AND SWAP1 SSTORE DUP6 DUP1 PUSH2 0xBDB JUMP JUMPDEST DUP1 PUSH1 0x1 DUP5 SWAP6 DUP3 SWAP5 SWAP6 DUP10 ADD CALLDATALOAD DUP2 SSTORE ADD SWAP5 ADD SWAP3 ADD SWAP1 PUSH2 0xBA8 JUMP JUMPDEST PUSH1 0x40 MLOAD PUSH4 0x6BC59D9D PUSH1 0xE0 SHL DUP2 MSTORE PUSH1 0x4 SWAP1 REVERT JUMPDEST PUSH1 0x40 MLOAD PUSH4 0x1C7DCD23 PUSH1 0xE0 SHL DUP2 MSTORE PUSH1 0x4 SWAP1 REVERT JUMPDEST CALLVALUE PUSH2 0x137 JUMPI PUSH1 0x20 DUP1 PUSH1 0x3 NOT CALLDATASIZE ADD SLT PUSH2 0x137 JUMPI PUSH1 0x4 CALLDATALOAD PUSH2 0xC5D PUSH2 0x1E1B JUMP JUMPDEST DUP1 PUSH1 0x0 MSTORE PUSH1 0x2 DUP3 MSTORE PUSH1 0x40 PUSH1 0x0 KECCAK256 PUSH1 0x6 DUP2 ADD SWAP3 DUP4 SLOAD PUSH1 0x3 PUSH1 0xFF DUP3 PUSH1 0xA8 SHR AND PUSH2 0xC83 DUP2 PUSH2 0x1A72 JUMP JUMPDEST SUB PUSH2 0xDE0 JUMPI PUSH1 0x7 SLOAD PUSH1 0x1 PUSH1 0x1 PUSH1 0xA0 SHL SUB SWAP2 SWAP1 DUP3 AND ISZERO PUSH2 0xDCE JUMPI PUSH1 0xFF PUSH1 0xA8 SHL NOT AND PUSH1 0x1 PUSH1 0xAA SHL OR DUP6 SSTORE PUSH1 0x0 DUP5 DUP2 MSTORE PUSH1 0x3 DUP4 MSTORE PUSH1 0x40 DUP2 KECCAK256 DUP1 SLOAD SWAP2 SWAP1 SSTORE DUP6 SLOAD PUSH1 0x7 SLOAD SWAP2 SWAP7 SWAP2 PUSH2 0xCD5 SWAP2 DUP9 SWAP2 DUP6 AND SWAP1 DUP6 AND PUSH2 0x1D9A JUMP JUMPDEST PUSH1 0x7 DUP3 DUP2 SLOAD AND SWAP5 ADD SWAP4 DUP3 DUP1 DUP7 SLOAD AND SWAP3 SLOAD AND SWAP1 PUSH1 0x40 MLOAD SWAP2 DUP6 DUP4 ADD SWAP4 PUSH4 0xF8252373 PUSH1 0xE0 SHL DUP6 MSTORE DUP9 PUSH1 0x24 DUP6 ADD MSTORE PUSH1 0x44 DUP5 ADD MSTORE PUSH1 0x64 DUP4 ADD MSTORE DUP8 PUSH1 0x84 DUP4 ADD MSTORE PUSH1 0x84 DUP3 MSTORE PUSH1 0xC0 DUP3 ADD SWAP3 DUP3 DUP5 LT PUSH1 0x1 PUSH1 0x1 PUSH1 0x40 SHL SUB DUP6 GT OR PUSH2 0x78C JUMPI PUSH1 0x0 DUP1 SWAP5 SWAP4 DUP2 SWAP5 PUSH1 0x40 MSTORE MLOAD SWAP3 GAS CALL RETURNDATASIZE ISZERO PUSH2 0xDC9 JUMPI RETURNDATASIZE PUSH2 0xD48 DUP2 PUSH2 0x1CBF JUMP JUMPDEST SWAP1 PUSH2 0xD56 PUSH1 0x40 MLOAD SWAP3 DUP4 PUSH2 0x1B98 JUMP JUMPDEST DUP2 MSTORE PUSH1 0x0 DUP5 RETURNDATASIZE SWAP3 ADD RETURNDATACOPY JUMPDEST ISZERO PUSH2 0xDB7 JUMPI PUSH32 0x843AF93D40ADDCEAC6932508439844B897D4DF9E971DB326D557E3CDAA9F3EBF SWAP3 SLOAD AND SWAP4 PUSH1 0x40 MLOAD SWAP1 DUP2 MSTORE LOG3 PUSH1 0x1 PUSH32 0x9B779B17422D0DF92223018B32B4D1FA46E071723D6817E2486D003BECC55F00 SSTORE STOP JUMPDEST PUSH1 0x40 MLOAD PUSH4 0x2D9FEA0B PUSH1 0xE0 SHL DUP2 MSTORE PUSH1 0x4 SWAP1 REVERT JUMPDEST PUSH2 0xD60 JUMP JUMPDEST PUSH1 0x40 MLOAD PUSH4 0xE4150C2D PUSH1 0xE0 SHL DUP2 MSTORE PUSH1 0x4 SWAP1 REVERT JUMPDEST PUSH1 0x40 MLOAD PUSH4 0x298413EB PUSH1 0xE0 SHL DUP2 MSTORE PUSH1 0x4 SWAP1 REVERT JUMPDEST CALLVALUE PUSH2 0x137 JUMPI PUSH1 0x20 CALLDATASIZE PUSH1 0x3 NOT ADD SLT PUSH2 0x137 JUMPI PUSH1 0x4 CALLDATALOAD PUSH2 0xE0E PUSH2 0x1E1B JUMP JUMPDEST DUP1 PUSH1 0x0 MSTORE PUSH1 0x2 PUSH1 0x20 MSTORE PUSH1 0x40 PUSH1 0x0 KECCAK256 PUSH1 0x6 DUP2 ADD DUP1 SLOAD SWAP2 PUSH1 0xFF DUP4 PUSH1 0xA8 SHR AND PUSH2 0xE33 DUP2 PUSH2 0x1A72 JUMP JUMPDEST DUP1 ISZERO SWAP1 DUP2 PUSH2 0xF1F JUMPI JUMPDEST DUP2 ISZERO PUSH2 0xEE9 JUMPI JUMPDEST POP ISZERO PUSH2 0xED7 JUMPI PUSH1 0xFF PUSH1 0xA8 SHL NOT SWAP1 SWAP3 AND PUSH1 0x5 PUSH1 0xA8 SHL OR DUP2 SSTORE PUSH1 0x0 DUP4 DUP2 MSTORE PUSH1 0x3 PUSH1 0x20 MSTORE PUSH1 0x40 DUP2 KECCAK256 DUP1 SLOAD SWAP2 SWAP1 SSTORE SWAP1 SLOAD PUSH1 0x1 SWAP3 SWAP1 SWAP3 ADD SLOAD PUSH2 0xE8C SWAP3 PUSH1 0x1 PUSH1 0x1 PUSH1 0xA0 SHL SUB SWAP2 DUP3 AND SWAP2 AND PUSH2 0x1D9A JUMP JUMPDEST PUSH32 0xFCE55EC5676EB956882871569C26371646501A85341438169BE11D577837FC72 PUSH1 0x0 DUP1 LOG2 PUSH1 0x1 PUSH32 0x9B779B17422D0DF92223018B32B4D1FA46E071723D6817E2486D003BECC55F00 SSTORE STOP JUMPDEST PUSH1 0x40 MLOAD PUSH4 0x29046DCD PUSH1 0xE1 SHL DUP2 MSTORE PUSH1 0x4 SWAP1 REVERT JUMPDEST PUSH1 0x1 SWAP2 POP PUSH2 0xEF6 DUP2 PUSH2 0x1A72 JUMP JUMPDEST EQ DUP1 PUSH2 0xF03 JUMPI JUMPDEST DUP6 PUSH2 0xE43 JUMP JUMPDEST POP PUSH2 0xF17 PUSH1 0xB DUP3 ADD SLOAD PUSH1 0x9 DUP4 ADD SLOAD SWAP1 PUSH2 0x1D65 JUMP JUMPDEST TIMESTAMP LT ISZERO PUSH2 0xEFD JUMP JUMPDEST SWAP1 POP PUSH2 0xF34 PUSH1 0xA DUP4 ADD SLOAD PUSH1 0x9 DUP5 ADD SLOAD SWAP1 PUSH2 0x1D65 JUMP JUMPDEST TIMESTAMP LT ISZERO SWAP1 PUSH2 0xE3C JUMP JUMPDEST CALLVALUE PUSH2 0x137 JUMPI PUSH1 0x20 CALLDATASIZE PUSH1 0x3 NOT ADD SLT PUSH2 0x137 JUMPI PUSH1 0x4 CALLDATALOAD PUSH1 0x0 MSTORE PUSH1 0x3 PUSH1 0x20 MSTORE PUSH1 0x20 PUSH1 0x40 PUSH1 0x0 KECCAK256 SLOAD PUSH1 0x40 MLOAD SWAP1 DUP2 MSTORE RETURN JUMPDEST CALLVALUE PUSH2 0x137 JUMPI PUSH1 0x20 CALLDATASIZE PUSH1 0x3 NOT ADD SLT PUSH2 0x137 JUMPI PUSH2 0xF82 PUSH2 0x1AB1 JUMP JUMPDEST PUSH2 0xF8A PUSH2 0x1C5D JUMP JUMPDEST PUSH1 0x1 PUSH1 0x1 PUSH1 0xA0 SHL SUB AND PUSH2 0xF9E DUP2 ISZERO ISZERO PUSH2 0x1C89 JUMP JUMPDEST PUSH1 0x1 PUSH1 0x1 PUSH1 0x60 SHL SUB PUSH1 0xA0 SHL PUSH1 0x6 SLOAD AND OR PUSH1 0x6 SSTORE PUSH1 0x0 DUP1 RETURN JUMPDEST CALLVALUE PUSH2 0x137 JUMPI PUSH1 0x0 CALLDATASIZE PUSH1 0x3 NOT ADD SLT PUSH2 0x137 JUMPI PUSH1 0x0 SLOAD PUSH1 0x40 MLOAD PUSH1 0x1 PUSH1 0x1 PUSH1 0xA0 SHL SUB SWAP1 SWAP2 AND DUP2 MSTORE PUSH1 0x20 SWAP1 RETURN JUMPDEST CALLVALUE PUSH2 0x137 JUMPI PUSH1 0x20 CALLDATASIZE PUSH1 0x3 NOT ADD SLT PUSH2 0x137 JUMPI PUSH1 0x4 CALLDATALOAD PUSH1 0x0 MSTORE PUSH1 0x2 PUSH1 0x20 MSTORE PUSH1 0x40 PUSH1 0x0 KECCAK256 DUP1 SLOAD SWAP1 PUSH1 0x1 PUSH1 0xA0 SHL PUSH1 0x1 SWAP1 SUB PUSH1 0x1 DUP3 ADD SLOAD AND SWAP1 PUSH1 0x2 DUP2 ADD PUSH2 0x1020 SWAP1 PUSH2 0x1BB9 JUMP JUMPDEST SWAP1 PUSH2 0x102D PUSH1 0x3 DUP3 ADD PUSH2 0x1BB9 JUMP JUMPDEST SWAP1 PUSH2 0x103A PUSH1 0x4 DUP3 ADD PUSH2 0x1BB9 JUMP JUMPDEST PUSH1 0x5 DUP3 ADD SLOAD PUSH1 0x6 DUP4 ADD SLOAD PUSH1 0x7 DUP5 ADD SLOAD PUSH1 0x1 PUSH1 0x1 PUSH1 0xA0 SHL SUB AND SWAP5 SWAP3 SWAP2 PUSH2 0x1061 PUSH1 0x8 DUP7 ADD PUSH2 0x1BB9 JUMP JUMPDEST SWAP1 PUSH1 0x9 DUP7 ADD SLOAD SWAP7 PUSH1 0xA DUP8 ADD SLOAD SWAP4 PUSH1 0xB DUP9 ADD SLOAD SWAP6 PUSH1 0xC DUP10 ADD SLOAD SWAP8 PUSH1 0xD DUP11 ADD SLOAD SWAP10 PUSH1 0xE ADD PUSH2 0x108C SWAP1 PUSH2 0x1BB9 JUMP JUMPDEST SWAP12 PUSH1 0x40 MLOAD SWAP15 DUP16 SWAP15 DUP16 SWAP1 PUSH2 0x220 SWAP3 DUP3 MSTORE PUSH1 0x20 DUP3 ADD MSTORE DUP2 PUSH1 0x40 DUP3 ADD MSTORE ADD PUSH2 0x10B0 SWAP2 PUSH2 0x1A32 JUMP JUMPDEST DUP14 DUP2 SUB PUSH1 0x60 DUP16 ADD MSTORE PUSH2 0x10C1 SWAP2 PUSH2 0x1A32 JUMP JUMPDEST DUP13 DUP2 SUB PUSH1 0x80 DUP15 ADD MSTORE PUSH2 0x10D2 SWAP2 PUSH2 0x1A32 JUMP JUMPDEST SWAP3 PUSH1 0xA0 DUP13 ADD MSTORE PUSH1 0x1 PUSH1 0xA0 SHL PUSH1 0x1 SWAP1 SUB DUP2 AND PUSH1 0xC0 DUP13 ADD MSTORE DUP1 PUSH1 0xA0 SHR PUSH1 0xFF AND PUSH2 0x10F8 SWAP1 PUSH2 0x1A72 JUMP JUMPDEST DUP1 PUSH1 0xA0 SHR PUSH1 0xFF AND PUSH1 0xE0 DUP13 ADD MSTORE DUP1 PUSH1 0xA8 SHR PUSH1 0xFF AND PUSH2 0x1114 SWAP1 PUSH2 0x1A72 JUMP JUMPDEST PUSH1 0xA8 SHR PUSH1 0xFF AND PUSH2 0x100 DUP12 ADD MSTORE PUSH2 0x120 DUP11 ADD MSTORE DUP9 DUP2 SUB PUSH2 0x140 DUP11 ADD MSTORE PUSH2 0x1138 SWAP2 PUSH2 0x1A32 JUMP JUMPDEST SWAP5 PUSH2 0x160 DUP9 ADD MSTORE PUSH2 0x180 DUP8 ADD MSTORE PUSH2 0x1A0 DUP7 ADD MSTORE PUSH2 0x1C0 DUP6 ADD MSTORE PUSH2 0x1E0 DUP5 ADD MSTORE DUP3 DUP2 SUB PUSH2 0x200 DUP5 ADD MSTORE PUSH2 0x1169 SWAP2 PUSH2 0x1A32 JUMP JUMPDEST SUB SWAP1 RETURN JUMPDEST CALLVALUE PUSH2 0x137 JUMPI PUSH2 0x117B CALLDATASIZE PUSH2 0x1AF4 JUMP JUMPDEST DUP3 PUSH1 0x0 SWAP4 SWAP3 SWAP4 MSTORE PUSH1 0x20 SWAP3 PUSH1 0x2 DUP5 MSTORE PUSH1 0x40 PUSH1 0x0 KECCAK256 PUSH1 0x6 DUP2 ADD DUP1 SLOAD SWAP1 PUSH1 0xFF DUP3 PUSH1 0xA8 SHR AND SWAP2 PUSH2 0x11A6 DUP4 PUSH2 0x1A72 JUMP JUMPDEST PUSH1 0x1 DUP1 SWAP4 SUB PUSH2 0x131F JUMPI PUSH1 0x7 DUP5 ADD SLOAD PUSH1 0x1 PUSH1 0x1 PUSH1 0xA0 SHL SUB AND CALLER SUB PUSH2 0xC1C JUMPI PUSH2 0x11D6 PUSH1 0xB DUP6 ADD SLOAD PUSH1 0x9 DUP7 ADD SLOAD SWAP1 PUSH2 0x1D65 JUMP JUMPDEST TIMESTAMP LT ISZERO PUSH2 0x130D JUMPI PUSH1 0xFF PUSH1 0xA8 SHL NOT AND PUSH1 0x1 PUSH1 0xA9 SHL OR SWAP1 SSTORE PUSH1 0x8 DUP3 ADD SWAP1 PUSH1 0x1 PUSH1 0x1 PUSH1 0x40 SHL SUB DUP6 GT PUSH2 0x78C JUMPI PUSH2 0x1213 DUP6 PUSH2 0x120D DUP5 SLOAD PUSH2 0x1B27 JUMP JUMPDEST DUP5 PUSH2 0x1D11 JUMP JUMPDEST PUSH1 0x0 SWAP7 PUSH1 0x1F DUP7 GT PUSH1 0x1 EQ PUSH2 0x1289 JUMPI POP POP PUSH2 0x1266 DUP5 DUP1 PUSH32 0x6446CED08D52E8F0331D94DBE32AD91D577EC02D6D8EC44376B1517FCCA598A7 SWAP8 SWAP9 PUSH1 0x0 SWAP2 PUSH2 0x127E JUMPI POP DUP2 PUSH1 0x1 SHL SWAP2 PUSH1 0x0 NOT SWAP1 PUSH1 0x3 SHL SHR NOT AND OR SWAP1 JUMP JUMPDEST SWAP1 SSTORE JUMPDEST PUSH1 0xC TIMESTAMP SWAP2 ADD SSTORE PUSH2 0xB85 PUSH1 0x40 MLOAD SWAP3 DUP4 SWAP3 DUP4 PUSH2 0x1D72 JUMP JUMPDEST SWAP1 POP DUP6 ADD CALLDATALOAD DUP10 PUSH2 0xB5F JUMP JUMPDEST PUSH1 0x1F NOT DUP7 AND SWAP8 DUP4 PUSH1 0x0 MSTORE DUP2 PUSH1 0x0 KECCAK256 SWAP2 PUSH1 0x0 SWAP1 JUMPDEST DUP11 DUP3 LT PUSH2 0x12F6 JUMPI POP POP DUP7 PUSH32 0x6446CED08D52E8F0331D94DBE32AD91D577EC02D6D8EC44376B1517FCCA598A7 SWAP9 SWAP10 LT PUSH2 0x12DC JUMPI JUMPDEST POP POP DUP5 DUP2 SHL ADD SWAP1 SSTORE PUSH2 0x1269 JUMP JUMPDEST DUP6 ADD CALLDATALOAD PUSH1 0x0 NOT PUSH1 0x3 DUP9 SWAP1 SHL PUSH1 0xF8 AND SHR NOT AND SWAP1 SSTORE DUP8 DUP1 PUSH2 0x12CF JUMP JUMPDEST DUP1 DUP6 DUP5 SWAP6 DUP3 SWAP5 SWAP6 DUP12 ADD CALLDATALOAD DUP2 SSTORE ADD SWAP5 ADD SWAP3 ADD SWAP1 PUSH2 0x129C JUMP JUMPDEST PUSH1 0x40 MLOAD PUSH4 0x75FD9E1D PUSH1 0xE1 SHL DUP2 MSTORE PUSH1 0x4 SWAP1 REVERT JUMPDEST PUSH1 0x40 MLOAD PUSH4 0x4374CC05 PUSH1 0xE1 SHL DUP2 MSTORE PUSH1 0x4 SWAP1 REVERT JUMPDEST CALLVALUE PUSH2 0x137 JUMPI PUSH1 0x0 CALLDATASIZE PUSH1 0x3 NOT ADD SLT PUSH2 0x137 JUMPI PUSH2 0x134A PUSH2 0x1C5D JUMP JUMPDEST PUSH1 0x0 DUP1 SLOAD PUSH1 0x1 PUSH1 0x1 PUSH1 0xA0 SHL SUB NOT DUP2 AND DUP3 SSTORE PUSH1 0x1 PUSH1 0x1 PUSH1 0xA0 SHL SUB AND PUSH32 0x8BE0079C531659141344CD1FD0A4F28419497F9722A3DAAFE3B4186F6B6457E0 DUP3 DUP1 LOG3 STOP JUMPDEST CALLVALUE PUSH2 0x137 JUMPI PUSH1 0x0 CALLDATASIZE PUSH1 0x3 NOT ADD SLT PUSH2 0x137 JUMPI PUSH1 0x7 SLOAD PUSH1 0x40 MLOAD PUSH1 0x1 PUSH1 0x1 PUSH1 0xA0 SHL SUB SWAP1 SWAP2 AND DUP2 MSTORE PUSH1 0x20 SWAP1 RETURN JUMPDEST CALLVALUE PUSH2 0x137 JUMPI PUSH1 0x20 CALLDATASIZE PUSH1 0x3 NOT ADD SLT PUSH2 0x137 JUMPI PUSH2 0x13CC PUSH2 0x1AB1 JUMP JUMPDEST PUSH2 0x13D4 PUSH2 0x1C5D JUMP JUMPDEST PUSH1 0x1 PUSH1 0x1 PUSH1 0xA0 SHL SUB AND PUSH2 0x13E8 DUP2 ISZERO ISZERO PUSH2 0x1C89 JUMP JUMPDEST DUP1 PUSH1 0x0 MSTORE PUSH1 0x4 PUSH1 0x20 MSTORE PUSH1 0x40 PUSH1 0x0 KECCAK256 PUSH1 0x1 PUSH1 0xFF NOT DUP3 SLOAD AND OR SWAP1 SSTORE PUSH32 0x784C8F4DBF0FFEDD6E72C76501C545A70F8B203B30A26CE542BF92BA87C248A4 PUSH1 0x0 DUP1 LOG2 STOP JUMPDEST CALLVALUE PUSH2 0x137 JUMPI PUSH1 0x0 CALLDATASIZE PUSH1 0x3 NOT ADD SLT PUSH2 0x137 JUMPI PUSH1 0x5 SLOAD PUSH1 0x40 MLOAD PUSH1 0x1 PUSH1 0x1 PUSH1 0xA0 SHL SUB SWAP1 SWAP2 AND DUP2 MSTORE PUSH1 0x20 SWAP1 RETURN JUMPDEST CALLVALUE PUSH2 0x137 JUMPI PUSH2 0x145F CALLDATASIZE PUSH2 0x1A92 JUMP JUMPDEST PUSH1 0x5 SLOAD PUSH1 0x1 PUSH1 0x1 PUSH1 0xA0 SHL SUB AND CALLER SUB PUSH2 0x1516 JUMPI DUP2 PUSH1 0x0 MSTORE PUSH1 0x2 PUSH1 0x20 MSTORE PUSH1 0x40 PUSH1 0x0 KECCAK256 PUSH1 0x6 DUP2 ADD SWAP2 DUP3 SLOAD SWAP2 PUSH1 0x2 PUSH1 0xFF DUP5 PUSH1 0xA8 SHR AND PUSH2 0x1499 DUP2 PUSH2 0x1A72 JUMP JUMPDEST SUB PUSH2 0x1504 JUMPI PUSH32 0x83D78894B0F1822DF158F015346461E6A79382C0AD68D7E0020FAB92628D3E94 SWAP4 PUSH1 0x20 SWAP4 DUP4 ISZERO PUSH2 0x14EF JUMPI POP DUP1 SLOAD PUSH1 0xFF PUSH1 0xA8 SHL NOT AND PUSH1 0x3 PUSH1 0xA8 SHL OR SWAP1 SSTORE TIMESTAMP PUSH1 0xD SWAP2 SWAP1 SWAP2 ADD SSTORE JUMPDEST PUSH1 0x40 MLOAD SWAP1 ISZERO ISZERO DUP2 MSTORE LOG2 STOP JUMPDEST PUSH1 0xFF PUSH1 0xA8 SHL NOT AND PUSH1 0x5 PUSH1 0xA8 SHL OR SWAP1 SSTORE POP PUSH2 0x14E4 JUMP JUMPDEST PUSH1 0x40 MLOAD PUSH4 0x15FCFCA7 PUSH1 0xE2 SHL DUP2 MSTORE PUSH1 0x4 SWAP1 REVERT JUMPDEST PUSH1 0x40 MLOAD PUSH4 0xBEF325F1 PUSH1 0xE0 SHL DUP2 MSTORE PUSH1 0x4 SWAP1 REVERT JUMPDEST CALLVALUE PUSH2 0x137 JUMPI PUSH1 0x20 CALLDATASIZE PUSH1 0x3 NOT ADD SLT PUSH2 0x137 JUMPI PUSH1 0x1 PUSH1 0x1 PUSH1 0xA0 SHL SUB PUSH2 0x1549 PUSH2 0x1AB1 JUMP JUMPDEST AND PUSH1 0x0 MSTORE PUSH1 0x4 PUSH1 0x20 MSTORE PUSH1 0x20 PUSH1 0xFF PUSH1 0x40 PUSH1 0x0 KECCAK256 SLOAD AND PUSH1 0x40 MLOAD SWAP1 ISZERO ISZERO DUP2 MSTORE RETURN JUMPDEST CALLVALUE PUSH2 0x137 JUMPI PUSH1 0x20 CALLDATASIZE PUSH1 0x3 NOT ADD SLT PUSH2 0x137 JUMPI PUSH2 0x1580 PUSH2 0x1AB1 JUMP JUMPDEST PUSH2 0x1588 PUSH2 0x1C5D JUMP JUMPDEST PUSH1 0x1 PUSH1 0x1 PUSH1 0xA0 SHL SUB AND PUSH2 0x159C DUP2 ISZERO ISZERO PUSH2 0x1C89 JUMP JUMPDEST PUSH1 0x1 PUSH1 0x1 PUSH1 0x60 SHL SUB PUSH1 0xA0 SHL PUSH1 0x7 SLOAD AND OR PUSH1 0x7 SSTORE PUSH1 0x0 DUP1 RETURN JUMPDEST CALLVALUE PUSH2 0x137 JUMPI PUSH2 0x15C2 CALLDATASIZE PUSH2 0x1A92 JUMP JUMPDEST PUSH1 0x6 SLOAD PUSH1 0x1 PUSH1 0x1 PUSH1 0xA0 SHL SUB AND CALLER SUB PUSH2 0x1678 JUMPI DUP2 PUSH1 0x0 MSTORE PUSH1 0x2 PUSH1 0x20 MSTORE PUSH1 0x40 PUSH1 0x0 KECCAK256 PUSH1 0x6 DUP2 ADD SWAP2 DUP3 SLOAD SWAP2 PUSH1 0x6 PUSH1 0xFF DUP5 PUSH1 0xA8 SHR AND PUSH2 0x15FC DUP2 PUSH2 0x1A72 JUMP JUMPDEST SUB PUSH2 0x1666 JUMPI PUSH32 0x5A87909BFF68CAAAAF0B3FD9C74EECCC928832F879315E5C6FB7A73612F26C0C SWAP4 PUSH1 0x20 SWAP4 DUP4 ISZERO PUSH2 0x164A JUMPI POP DUP1 SLOAD PUSH1 0xFF PUSH1 0xA8 SHL NOT AND PUSH1 0x5 PUSH1 0xA8 SHL OR SWAP1 SSTORE POP PUSH1 0x40 MLOAD SWAP1 ISZERO ISZERO DUP2 MSTORE LOG2 STOP JUMPDEST PUSH1 0xFF PUSH1 0xA8 SHL NOT AND PUSH1 0x3 PUSH1 0xA8 SHL OR SWAP1 SSTORE TIMESTAMP PUSH1 0xD SWAP2 SWAP1 SWAP2 ADD SSTORE PUSH2 0x14E4 JUMP JUMPDEST PUSH1 0x40 MLOAD PUSH4 0x335C253 PUSH1 0xE2 SHL DUP2 MSTORE PUSH1 0x4 SWAP1 REVERT JUMPDEST PUSH1 0x40 MLOAD PUSH4 0xED5AD759 PUSH1 0xE0 SHL DUP2 MSTORE PUSH1 0x4 SWAP1 REVERT JUMPDEST CALLVALUE PUSH2 0x137 JUMPI PUSH1 0x20 CALLDATASIZE PUSH1 0x3 NOT ADD SLT PUSH2 0x137 JUMPI PUSH1 0x60 PUSH2 0x200 PUSH1 0x40 MLOAD PUSH2 0x16AC DUP2 PUSH2 0x1B61 JUMP JUMPDEST PUSH1 0x0 DUP2 MSTORE PUSH1 0x0 PUSH1 0x20 DUP3 ADD MSTORE DUP3 PUSH1 0x40 DUP3 ADD MSTORE DUP3 DUP1 DUP3 ADD MSTORE DUP3 PUSH1 0x80 DUP3 ADD MSTORE PUSH1 0x0 PUSH1 0xA0 DUP3 ADD MSTORE PUSH1 0x0 PUSH1 0xC0 DUP3 ADD MSTORE PUSH1 0x0 PUSH1 0xE0 DUP3 ADD MSTORE PUSH1 0x0 PUSH2 0x100 DUP3 ADD MSTORE PUSH1 0x0 PUSH2 0x120 DUP3 ADD MSTORE DUP3 PUSH2 0x140 DUP3 ADD MSTORE PUSH1 0x0 PUSH2 0x160 DUP3 ADD MSTORE PUSH1 0x0 PUSH2 0x180 DUP3 ADD MSTORE PUSH1 0x0 PUSH2 0x1A0 DUP3 ADD MSTORE PUSH1 0x0 PUSH2 0x1C0 DUP3 ADD MSTORE PUSH1 0x0 PUSH2 0x1E0 DUP3 ADD MSTORE ADD MSTORE PUSH1 0x4 CALLDATALOAD PUSH1 0x0 MSTORE PUSH1 0x2 PUSH1 0x20 MSTORE PUSH2 0x1169 PUSH1 0x40 PUSH1 0x0 KECCAK256 PUSH2 0x1836 PUSH1 0xE PUSH1 0x40 MLOAD SWAP3 PUSH2 0x1743 DUP5 PUSH2 0x1B61 JUMP JUMPDEST DUP1 SLOAD DUP5 MSTORE PUSH1 0x1 DUP2 ADD SLOAD PUSH1 0x1 PUSH1 0x1 PUSH1 0xA0 SHL SUB AND PUSH1 0x20 DUP6 ADD MSTORE PUSH2 0x1766 PUSH1 0x2 DUP3 ADD PUSH2 0x1BB9 JUMP JUMPDEST PUSH1 0x40 DUP6 ADD MSTORE PUSH2 0x1777 PUSH1 0x3 DUP3 ADD PUSH2 0x1BB9 JUMP JUMPDEST PUSH1 0x60 DUP6 ADD MSTORE PUSH2 0x1788 PUSH1 0x4 DUP3 ADD PUSH2 0x1BB9 JUMP JUMPDEST PUSH1 0x80 DUP6 ADD MSTORE PUSH1 0x5 DUP2 ADD SLOAD PUSH1 0xA0 DUP6 ADD MSTORE PUSH1 0xFF PUSH1 0x6 DUP3 ADD SLOAD PUSH1 0x1 DUP1 PUSH1 0xA0 SHL SUB DUP2 AND PUSH1 0xC0 DUP8 ADD MSTORE DUP2 DUP2 PUSH1 0xA0 SHR AND PUSH2 0x17BB DUP2 PUSH2 0x1A72 JUMP JUMPDEST PUSH1 0xE0 DUP8 ADD MSTORE PUSH1 0xA8 SHR AND PUSH2 0x17CD DUP2 PUSH2 0x1A72 JUMP JUMPDEST PUSH2 0x100 DUP6 ADD MSTORE PUSH1 0x7 DUP2 ADD SLOAD PUSH1 0x1 PUSH1 0x1 PUSH1 0xA0 SHL SUB AND PUSH2 0x120 DUP6 ADD MSTORE PUSH2 0x17F3 PUSH1 0x8 DUP3 ADD PUSH2 0x1BB9 JUMP JUMPDEST PUSH2 0x140 DUP6 ADD MSTORE PUSH1 0x9 DUP2 ADD SLOAD PUSH2 0x160 DUP6 ADD MSTORE PUSH1 0xA DUP2 ADD SLOAD PUSH2 0x180 DUP6 ADD MSTORE PUSH1 0xB DUP2 ADD SLOAD PUSH2 0x1A0 DUP6 ADD MSTORE PUSH1 0xC DUP2 ADD SLOAD PUSH2 0x1C0 DUP6 ADD MSTORE PUSH1 0xD DUP2 ADD SLOAD PUSH2 0x1E0 DUP6 ADD MSTORE ADD PUSH2 0x1BB9 JUMP JUMPDEST PUSH2 0x200 DUP3 ADD MSTORE PUSH1 0x40 MLOAD SWAP2 DUP3 SWAP2 PUSH1 0x20 DUP4 MSTORE DUP1 MLOAD PUSH1 0x20 DUP5 ADD MSTORE PUSH1 0x1 DUP1 PUSH1 0xA0 SHL SUB PUSH1 0x20 DUP3 ADD MLOAD AND PUSH1 0x40 DUP5 ADD MSTORE PUSH2 0x200 PUSH2 0x1923 PUSH2 0x18B2 PUSH2 0x189C PUSH2 0x1886 PUSH1 0x40 DUP7 ADD MLOAD PUSH2 0x220 PUSH1 0x60 DUP11 ADD MSTORE PUSH2 0x240 DUP10 ADD SWAP1 PUSH2 0x1A32 JUMP JUMPDEST PUSH1 0x60 DUP7 ADD MLOAD DUP9 DUP3 SUB PUSH1 0x1F NOT ADD PUSH1 0x80 DUP11 ADD MSTORE PUSH2 0x1A32 JUMP JUMPDEST PUSH1 0x80 DUP6 ADD MLOAD DUP8 DUP3 SUB PUSH1 0x1F NOT ADD PUSH1 0xA0 DUP10 ADD MSTORE PUSH2 0x1A32 JUMP JUMPDEST PUSH1 0xA0 DUP5 ADD MLOAD PUSH1 0xC0 DUP8 ADD MSTORE PUSH1 0x1 DUP1 PUSH1 0xA0 SHL SUB PUSH1 0xC0 DUP6 ADD MLOAD AND PUSH1 0xE0 DUP8 ADD MSTORE PUSH1 0xE0 DUP5 ADD MLOAD PUSH2 0x18DC DUP2 PUSH2 0x1A72 JUMP JUMPDEST PUSH2 0x100 DUP8 ADD MSTORE PUSH2 0x100 DUP5 ADD MLOAD PUSH2 0x18F1 DUP2 PUSH2 0x1A72 JUMP JUMPDEST PUSH2 0x120 DUP8 ADD MSTORE PUSH1 0x1 DUP1 PUSH1 0xA0 SHL SUB PUSH2 0x120 DUP6 ADD MLOAD AND PUSH2 0x140 DUP8 ADD MSTORE PUSH2 0x140 DUP5 ADD MLOAD PUSH1 0x1F NOT DUP8 DUP4 SUB ADD PUSH2 0x160 DUP9 ADD MSTORE PUSH2 0x1A32 JUMP JUMPDEST SWAP2 PUSH2 0x160 DUP2 ADD MLOAD PUSH2 0x180 DUP7 ADD MSTORE PUSH2 0x180 DUP2 ADD MLOAD PUSH2 0x1A0 DUP7 ADD MSTORE PUSH2 0x1A0 DUP2 ADD MLOAD PUSH2 0x1C0 DUP7 ADD MSTORE PUSH2 0x1C0 DUP2 ADD MLOAD PUSH2 0x1E0 DUP7 ADD MSTORE PUSH2 0x1E0 DUP2 ADD MLOAD DUP3 DUP7 ADD MSTORE ADD MLOAD PUSH1 0x1F NOT DUP5 DUP4 SUB ADD PUSH2 0x220 DUP6 ADD MSTORE PUSH2 0x1A32 JUMP JUMPDEST CALLVALUE PUSH2 0x137 JUMPI PUSH1 0x20 CALLDATASIZE PUSH1 0x3 NOT ADD SLT PUSH2 0x137 JUMPI PUSH1 0x4 CALLDATALOAD DUP1 PUSH1 0x0 MSTORE PUSH1 0x2 PUSH1 0x20 MSTORE PUSH1 0x40 PUSH1 0x0 KECCAK256 PUSH1 0x6 DUP2 ADD DUP1 SLOAD PUSH1 0xFF DUP2 PUSH1 0xA8 SHR AND PUSH2 0x19AA DUP2 PUSH2 0x1A72 JUMP JUMPDEST PUSH2 0x1A20 JUMPI PUSH2 0x19C1 PUSH1 0xA DUP5 ADD SLOAD PUSH1 0x9 DUP6 ADD SLOAD SWAP1 PUSH2 0x1D65 JUMP JUMPDEST TIMESTAMP LT ISZERO PUSH2 0x130D JUMPI PUSH1 0xFF PUSH1 0xA8 SHL NOT AND PUSH1 0x1 PUSH1 0xA8 SHL OR SWAP1 SSTORE PUSH1 0x7 DUP2 ADD DUP1 SLOAD PUSH1 0x1 PUSH1 0x1 PUSH1 0xA0 SHL SUB NOT AND CALLER SWAP1 DUP2 OR SWAP1 SWAP2 SSTORE TIMESTAMP PUSH1 0xB SWAP1 SWAP3 ADD SWAP2 SWAP1 SWAP2 SSTORE SWAP1 PUSH32 0xC8717B61398FB9D7CACF49FE1E296B2F10E9711226B532842B6FFD642CB6A2C6 PUSH1 0x0 DUP1 LOG3 STOP JUMPDEST PUSH1 0x40 MLOAD PUSH4 0xFE894217 PUSH1 0xE0 SHL DUP2 MSTORE PUSH1 0x4 SWAP1 REVERT JUMPDEST SWAP2 SWAP1 DUP3 MLOAD SWAP3 DUP4 DUP3 MSTORE PUSH1 0x0 JUMPDEST DUP5 DUP2 LT PUSH2 0x1A5E JUMPI POP POP DUP3 PUSH1 0x0 PUSH1 0x20 DUP1 SWAP5 SWAP6 DUP5 ADD ADD MSTORE PUSH1 0x1F DUP1 NOT SWAP2 ADD AND ADD ADD SWAP1 JUMP JUMPDEST PUSH1 0x20 DUP2 DUP4 ADD DUP2 ADD MLOAD DUP5 DUP4 ADD DUP3 ADD MSTORE ADD PUSH2 0x1A3D JUMP JUMPDEST PUSH1 0x7 GT ISZERO PUSH2 0x1A7C JUMPI JUMP JUMPDEST PUSH4 0x4E487B71 PUSH1 0xE0 SHL PUSH1 0x0 MSTORE PUSH1 0x21 PUSH1 0x4 MSTORE PUSH1 0x24 PUSH1 0x0 REVERT JUMPDEST PUSH1 0x40 SWAP1 PUSH1 0x3 NOT ADD SLT PUSH2 0x137 JUMPI PUSH1 0x4 CALLDATALOAD SWAP1 PUSH1 0x24 CALLDATALOAD DUP1 ISZERO ISZERO DUP2 SUB PUSH2 0x137 JUMPI SWAP1 JUMP JUMPDEST PUSH1 0x4 CALLDATALOAD SWAP1 PUSH1 0x1 PUSH1 0x1 PUSH1 0xA0 SHL SUB DUP3 AND DUP3 SUB PUSH2 0x137 JUMPI JUMP JUMPDEST SWAP2 DUP2 PUSH1 0x1F DUP5 ADD SLT ISZERO PUSH2 0x137 JUMPI DUP3 CALLDATALOAD SWAP2 PUSH1 0x1 PUSH1 0x1 PUSH1 0x40 SHL SUB DUP4 GT PUSH2 0x137 JUMPI PUSH1 0x20 DUP4 DUP2 DUP7 ADD SWAP6 ADD ADD GT PUSH2 0x137 JUMPI JUMP JUMPDEST SWAP1 PUSH1 0x40 PUSH1 0x3 NOT DUP4 ADD SLT PUSH2 0x137 JUMPI PUSH1 0x4 CALLDATALOAD SWAP2 PUSH1 0x24 CALLDATALOAD SWAP1 PUSH1 0x1 PUSH1 0x1 PUSH1 0x40 SHL SUB DUP3 GT PUSH2 0x137 JUMPI PUSH2 0x1B23 SWAP2 PUSH1 0x4 ADD PUSH2 0x1AC7 JUMP JUMPDEST SWAP1 SWAP2 JUMP JUMPDEST SWAP1 PUSH1 0x1 DUP3 DUP2 SHR SWAP3 AND DUP1 ISZERO PUSH2 0x1B57 JUMPI JUMPDEST PUSH1 0x20 DUP4 LT EQ PUSH2 0x1B41 JUMPI JUMP JUMPDEST PUSH4 0x4E487B71 PUSH1 0xE0 SHL PUSH1 0x0 MSTORE PUSH1 0x22 PUSH1 0x4 MSTORE PUSH1 0x24 PUSH1 0x0 REVERT JUMPDEST SWAP2 PUSH1 0x7F AND SWAP2 PUSH2 0x1B36 JUMP JUMPDEST PUSH2 0x220 DUP2 ADD SWAP1 DUP2 LT PUSH1 0x1 PUSH1 0x1 PUSH1 0x40 SHL SUB DUP3 GT OR PUSH2 0x78C JUMPI PUSH1 0x40 MSTORE JUMP JUMPDEST PUSH1 0x20 DUP2 ADD SWAP1 DUP2 LT PUSH1 0x1 PUSH1 0x1 PUSH1 0x40 SHL SUB DUP3 GT OR PUSH2 0x78C JUMPI PUSH1 0x40 MSTORE JUMP JUMPDEST SWAP1 PUSH1 0x1F DUP1 NOT SWAP2 ADD AND DUP2 ADD SWAP1 DUP2 LT PUSH1 0x1 PUSH1 0x1 PUSH1 0x40 SHL SUB DUP3 GT OR PUSH2 0x78C JUMPI PUSH1 0x40 MSTORE JUMP JUMPDEST SWAP1 PUSH1 0x40 MLOAD SWAP2 DUP3 PUSH1 0x0 DUP3 SLOAD PUSH2 0x1BCC DUP2 PUSH2 0x1B27 JUMP JUMPDEST SWAP1 DUP2 DUP5 MSTORE PUSH1 0x20 SWAP5 PUSH1 0x1 SWAP2 DUP3 DUP2 AND SWAP1 DUP2 PUSH1 0x0 EQ PUSH2 0x1C3B JUMPI POP PUSH1 0x1 EQ PUSH2 0x1BFC JUMPI JUMPDEST POP POP POP PUSH2 0x1BFA SWAP3 POP SUB DUP4 PUSH2 0x1B98 JUMP JUMPDEST JUMP JUMPDEST PUSH1 0x0 SWAP1 DUP2 MSTORE DUP6 DUP2 KECCAK256 SWAP6 SWAP4 POP SWAP2 SWAP1 JUMPDEST DUP2 DUP4 LT PUSH2 0x1C23 JUMPI POP POP PUSH2 0x1BFA SWAP4 POP DUP3 ADD ADD CODESIZE DUP1 DUP1 PUSH2 0x1BEB JUMP JUMPDEST DUP6 SLOAD DUP9 DUP5 ADD DUP6 ADD MSTORE SWAP5 DUP6 ADD SWAP5 DUP8 SWAP5 POP SWAP2 DUP4 ADD SWAP2 PUSH2 0x1C0A JUMP JUMPDEST SWAP3 POP POP POP PUSH2 0x1BFA SWAP5 SWAP3 POP PUSH1 0xFF NOT AND DUP3 DUP5 ADD MSTORE ISZERO ISZERO PUSH1 0x5 SHL DUP3 ADD ADD CODESIZE DUP1 DUP1 PUSH2 0x1BEB JUMP JUMPDEST PUSH1 0x0 SLOAD PUSH1 0x1 PUSH1 0x1 PUSH1 0xA0 SHL SUB AND CALLER SUB PUSH2 0x1C71 JUMPI JUMP JUMPDEST PUSH1 0x40 MLOAD PUSH4 0x118CDAA7 PUSH1 0xE0 SHL DUP2 MSTORE CALLER PUSH1 0x4 DUP3 ADD MSTORE PUSH1 0x24 SWAP1 REVERT JUMPDEST ISZERO PUSH2 0x1C90 JUMPI JUMP JUMPDEST PUSH1 0x40 MLOAD PUSH3 0x461BCD PUSH1 0xE5 SHL DUP2 MSTORE PUSH1 0x20 PUSH1 0x4 DUP3 ADD MSTORE PUSH1 0x7 PUSH1 0x24 DUP3 ADD MSTORE PUSH7 0x125B9D985B1A59 PUSH1 0xCA SHL PUSH1 0x44 DUP3 ADD MSTORE PUSH1 0x64 SWAP1 REVERT JUMPDEST PUSH1 0x1 PUSH1 0x1 PUSH1 0x40 SHL SUB DUP2 GT PUSH2 0x78C JUMPI PUSH1 0x1F ADD PUSH1 0x1F NOT AND PUSH1 0x20 ADD SWAP1 JUMP JUMPDEST SWAP3 SWAP2 SWAP3 PUSH2 0x1CE6 DUP3 PUSH2 0x1CBF JUMP JUMPDEST SWAP2 PUSH2 0x1CF4 PUSH1 0x40 MLOAD SWAP4 DUP5 PUSH2 0x1B98 JUMP JUMPDEST DUP3 SWAP5 DUP2 DUP5 MSTORE DUP2 DUP4 ADD GT PUSH2 0x137 JUMPI DUP3 DUP2 PUSH1 0x20 SWAP4 DUP5 PUSH1 0x0 SWAP7 ADD CALLDATACOPY ADD ADD MSTORE JUMP JUMPDEST SWAP1 PUSH1 0x1F DUP2 GT PUSH2 0x1D1F JUMPI POP POP POP JUMP JUMPDEST PUSH1 0x0 SWAP2 DUP3 MSTORE PUSH1 0x20 DUP3 KECCAK256 SWAP1 PUSH1 0x20 PUSH1 0x1F DUP6 ADD PUSH1 0x5 SHR DUP4 ADD SWAP5 LT PUSH2 0x1D5B JUMPI JUMPDEST PUSH1 0x1F ADD PUSH1 0x5 SHR ADD SWAP2 JUMPDEST DUP3 DUP2 LT PUSH2 0x1D50 JUMPI POP POP POP JUMP JUMPDEST DUP2 DUP2 SSTORE PUSH1 0x1 ADD PUSH2 0x1D44 JUMP JUMPDEST SWAP1 SWAP3 POP DUP3 SWAP1 PUSH2 0x1D3B JUMP JUMPDEST SWAP2 SWAP1 DUP3 ADD DUP1 SWAP3 GT PUSH2 0x979 JUMPI JUMP JUMPDEST SWAP1 SWAP2 DUP1 PUSH1 0x40 SWAP4 PUSH1 0x20 DUP5 MSTORE DUP2 PUSH1 0x20 DUP6 ADD MSTORE DUP5 DUP5 ADD CALLDATACOPY PUSH1 0x0 DUP3 DUP3 ADD DUP5 ADD MSTORE PUSH1 0x1F ADD PUSH1 0x1F NOT AND ADD ADD SWAP1 JUMP JUMPDEST PUSH1 0x40 MLOAD PUSH4 0xA9059CBB PUSH1 0xE0 SHL PUSH1 0x0 SWAP1 DUP2 MSTORE PUSH1 0x1 PUSH1 0x1 PUSH1 0xA0 SHL SUB SWAP4 DUP5 AND PUSH1 0x4 MSTORE PUSH1 0x24 SWAP5 SWAP1 SWAP5 MSTORE SWAP3 PUSH1 0x20 SWAP1 PUSH1 0x44 DUP2 DUP1 DUP6 GAS CALL PUSH1 0x1 PUSH1 0x0 MLOAD EQ DUP2 AND ISZERO PUSH2 0x1DFB JUMPI JUMPDEST DUP4 PUSH1 0x40 MSTORE ISZERO PUSH2 0x1DE5 JUMPI POP POP POP JUMP JUMPDEST PUSH4 0x5274AFE7 PUSH1 0xE0 SHL DUP4 MSTORE AND PUSH1 0x4 DUP3 ADD MSTORE PUSH1 0x24 SWAP2 POP REVERT JUMPDEST PUSH1 0x1 DUP2 ISZERO AND PUSH2 0x1E11 JUMPI DUP2 EXTCODESIZE ISZERO ISZERO RETURNDATASIZE ISZERO AND AND PUSH2 0x1DD7 JUMP JUMPDEST DUP4 RETURNDATASIZE PUSH1 0x0 DUP3 RETURNDATACOPY RETURNDATASIZE SWAP1 REVERT JUMPDEST PUSH32 0x9B779B17422D0DF92223018B32B4D1FA46E071723D6817E2486D003BECC55F00 PUSH1 0x2 DUP2 SLOAD EQ PUSH2 0x1E4B JUMPI PUSH1 0x2 SWAP1 SSTORE JUMP JUMPDEST PUSH1 0x40 MLOAD PUSH4 0x3EE5AEB5 PUSH1 0xE0 SHL DUP2 MSTORE PUSH1 0x4 SWAP1 REVERT INVALID LOG2 PUSH5 0x6970667358 0x22 SLT KECCAK256 SWAP3 CALLDATACOPY MLOAD 0xA5 0xEE PUSH2 0x8C3A GASLIMIT 0xF 0xAD MSIZE SWAP3 SWAP1 CREATE 0xA8 PUSH21 0xA6C203E9F5A748CECD8ECBD9BDD18064736F6C6343 STOP ADDMOD ISZERO STOP CALLER "},"methodIdentifiers":{"acceptTask(uint256)":"1bf6912d","addSupportedToken(address)":"6d69fcaf","completeTask(uint256)":"e1e29558","disputeResolver()":"f5a3f4af","disputeVerification(uint256,string)":"e3a783f4","getTask(uint256)":"1d65e77e","handleTimeout(uint256)":"b4f36264","nextTaskId()":"fdc3d8d7","owner()":"8da5cb5b","publishTask(string,string,string,uint256,address,uint8,uint256)":"f331a173","renounceOwnership()":"715018a6","resolveDispute(uint256,bool)":"34b25ee2","rewardContract()":"6ea69d62","setDisputeResolver(address)":"924e63f6","setRewardContract(address)":"51508f0a","setVerificationEngine(address)":"f5b3a853","submitResult(uint256,string)":"8c0dd79a","supportedTokens(address)":"68c4ac26","taskRewards(uint256)":"9285c94b","tasks(uint256)":"8d977672","transferOwnership(address)":"f2fde38b","verificationEngine()":"6cfc1439","verifyResult(uint256,bool)":"6b4080fc"}}}}}