{"src/RewardContract.sol":{"RewardContract":{"abi":[{"inputs":[{"internalType":"uint256","name":"_feeBps","type":"uint256"},{"internalType":"address","name":"_feeRecipient","type":"address"}],"stateMutability":"nonpayable","type":"constructor"},{"inputs":[],"name":"FeeTooHigh","type":"error"},{"inputs":[],"name":"InsufficientBalance","type":"error"},{"inputs":[],"name":"InvalidAddress","type":"error"},{"inputs":[],"name":"NotTaskContract","type":"error"},{"inputs":[{"internalType":"address","name":"owner","type":"address"}],"name":"OwnableInvalidOwner","type":"error"},{"inputs":[{"internalType":"address","name":"account","type":"address"}],"name":"OwnableUnauthorizedAccount","type":"error"},{"inputs":[],"name":"ReentrancyGuardReentrantCall","type":"error"},{"inputs":[{"internalType":"address","name":"token","type":"address"}],"name":"SafeERC20FailedOperation","type":"error"},{"inputs":[],"name":"UnsupportedToken","type":"error"},{"inputs":[],"name":"ZeroAmount","type":"error"},{"anonymous":false,"inputs":[{"indexed":true,"internalType":"address","name":"previousOwner","type":"address"},{"indexed":true,"internalType":"address","name":"newOwner","type":"address"}],"name":"OwnershipTransferred","type":"event"},{"anonymous":false,"inputs":[{"indexed":false,"internalType":"uint256","name":"newFeeBps","type":"uint256"}],"name":"PlatformFeeUpdated","type":"event"},{"anonymous":false,"inputs":[{"indexed":true,"internalType":"uint256","name":"taskId","type":"uint256"},{"indexed":true,"internalType":"address","name":"agent","type":"address"},{"indexed":true,"internalType":"address","name":"token","type":"address"},{"indexed":false,"internalType":"uint256","name":"amount","type":"uint256"},{"indexed":false,"internalType":"uint256","name":"fee","type":"uint256"}],"name":"RewardDistributed","type":"event"},{"anonymous":false,"inputs":[{"indexed":true,"internalType":"address","name":"agent","type":"address"},{"indexed":true,"internalType":"address","name":"token","type":"address"},{"indexed":false,"internalType":"uint256","name":"amount","type":"uint256"}],"name":"RewardWithdrawn","type":"event"},{"anonymous":false,"inputs":[{"indexed":true,"internalType":"address","name":"token","type":"address"}],"name":"TokenAdded","type":"event"},{"anonymous":false,"inputs":[{"indexed":true,"internalType":"address","name":"token","type":"address"}],"name":"TokenRemoved","type":"event"},{"inputs":[{"internalType":"address","name":"token","type":"address"}],"name":"addSupportedToken","outputs":[],"stateMutability":"nonpayable","type":"function"},{"inputs":[{"internalType":"address","name":"","type":"address"},{"internalType":"address","name":"","type":"address"}],"name":"balances","outputs":[{"internalType":"uint256","name":"","type":"uint256"}],"stateMutability":"view","type":"function"},{"inputs":[{"internalType":"uint256","name":"taskId","type":"uint256"},{"internalType":"address","name":"agent","type":"address"},{"internalType":"address","name":"token","type":"address"},{"internalType":"uint256","name":"amount","type":"uint256"}],"name":"distributeReward","outputs":[],"stateMutability":"nonpayable","type":"function"},{"inputs":[],"name":"feeRecipient","outputs":[{"internalType":"address","name":"","type":"address"}],"stateMutability":"view","type":"function"},{"inputs":[{"internalType":"address","name":"agent","type":"address"},{"internalType":"address","name":"token","type":"address"}],"name":"getBalance","outputs":[{"internalType":"uint256","name":"","type":"uint256"}],"stateMutability":"view","type":"function"},{"inputs":[],"name":"owner","outputs":[{"internalType":"address","name":"","type":"address"}],"stateMutability":"view","type":"function"},{"inputs":[],"name":"platformFeeBps","outputs":[{"internalType":"uint256","name":"","type":"uint256"}],"stateMutability":"view","type":"function"},{"inputs":[{"internalType":"address","name":"token","type":"address"}],"name":"removeSupportedToken","outputs":[],"stateMutability":"nonpayable","type":"function"},{"inputs":[],"name":"renounceOwnership","outputs":[],"stateMutability":"nonpayable","type":"function"},{"inputs":[{"internalType":"address","name":"_recipient","type":"address"}],"name":"setFeeRecipient","outputs":[],"stateMutability":"nonpayable","type":"function"},{"inputs":[{"internalType":"uint256","name":"_feeBps","type":"uint256"}],"name":"setPlatformFee","outputs":[],"stateMutability":"nonpayable","type":"function"},{"inputs":[{"internalType":"address","name":"_taskContract","type":"address"}],"name":"setTaskContract","outputs":[],"stateMutability":"nonpayable","type":"function"},{"inputs":[{"internalType":"address","name":"","type":"address"}],"name":"supportedTokens","outputs":[{"internalType":"bool","name":"","type":"bool"}],"stateMutability":"view","type":"function"},{"inputs":[],"name":"taskContract","outputs":[{"internalType":"address","name":"","type":"address"}],"stateMutability":"view","type":"function"},{"inputs":[{"internalType":"address","name":"newOwner","type":"address"}],"name":"transferOwnership","outputs":[],"stateMutability":"nonpayable","type":"function"},{"inputs":[{"internalType":"address","name":"token","type":"address"}],"name":"withdrawReward","outputs":[],"stateMutability":"nonpayable","type":"function"}],"evm":{"bytecode":{"linkReferences":{},"object":"608034610127576109ba90601f38839003908101601f19168201906001600160401b0382118383101761012c57808391604095869485528339810103126101275780516020909101516001600160a01b0380821692909183900361012757331561010f576000549160018060a01b03199233848216176000558551913391167f8be0079c531659141344cd1fd0a4f28419497f9722a3daafe3b4186f6b6457e0600080a360017f9b779b17422d0df92223018b32b4d1fa46e071723d6817e2486d003becc55f00556103e88211610100575082156100ef5760045560055416176005555161087790816101438239f35b835163e6c4247b60e01b8152600490fd5b63cd4e616760e01b8152600490fd5b8351631e4fbdf760e01b815260006004820152602490fd5b600080fd5b634e487b7160e01b600052604160045260246000fdfe60406080815260048036101561001457600080fd5b600090813560e01c806312e8e2c3146106fe57806322dcd13e146106df5780633b70aebc146106b6578063469048401461068d57806368c4ac261461064f5780636d69fcaf146105d1578063715018a614610574578063763191901461050e5780638c57c521146104bd5780638da5cb5b14610495578063b86e321c14610395578063c23f001f1461034c578063d4fac45d14610304578063e74b981b146102a6578063f2fde38b1461021a5763f8252373146100d057600080fd5b34610216576080366003190112610216576100e961077e565b6001600160a01b039360443585811693919084900361021257606435918660035416330361020457848652600160205260ff8287205416156101f65782156101e857805480840290848204036101d55761271090048084039384116101d5578587526002602052878388209516948588526020528287209788548581018091116101c2577f2f28480815e7e66abe3e3d8c1e0477bf03e7dd296fecd76e7420076e2a6887e395969798995581806101ad575b5050825194855260208501523592a480f35b6101bb9160055416896107c0565b388161019b565b634e487b7160e01b895260118452602489fd5b634e487b7160e01b875260118252602487fd5b9051631f2a200560e01b8152fd5b905163350b944160e11b8152fd5b905163d35bcfcb60e01b8152fd5b8480fd5b5080fd5b508290346102a25760203660031901126102a257610236610763565b9061023f610794565b6001600160a01b0391821692831561028c57505082546001600160a01b0319811683178455167f8be0079c531659141344cd1fd0a4f28419497f9722a3daafe3b4186f6b6457e08380a380f35b51631e4fbdf760e01b8152908101849052602490fd5b8280fd5b508290346102a25760203660031901126102a2576102c2610763565b6102ca610794565b6001600160a01b03169182156102f75750506bffffffffffffffffffffffff60a01b600554161760055580f35b5163e6c4247b60e01b8152fd5b82843461021657806003193601126102165780602092610322610763565b6001600160a01b038061033361077e565b1683526002865283832091168252845220549051908152f35b8284346102165780600319360112610216578060209261036a610763565b61037261077e565b6001600160a01b0391821683526002865283832091168252845220549051908152f35b503461021657602092836003193601126102a2576103b1610763565b917f9b779b17422d0df92223018b32b4d1fa46e071723d6817e2486d003becc55f0092600284541461048657600284556001600160a01b0316808552600186528285205490929060ff1615610479578285526002865280852033865286528085205491821561046b575084957fe06fab35f3c220725c11d544884aff93ebf67222c8310c487c71f27c844593e891846001975260028252808820338952825287818120556104608433876107c0565b519283523392a35580f35b9051631e9acf1760e31b8152fd5b5163350b944160e11b8152fd5b509051633ee5aeb560e01b8152fd5b828434610216578160031936011261021657905490516001600160a01b039091168152602090f35b508290346102a25760203660031901126102a2576104d9610763565b6104e1610794565b6001600160a01b03169182156102f75750506bffffffffffffffffffffffff60a01b600354161760035580f35b82843461021657602036600319011261021657610529610763565b610531610794565b6001600160a01b03168083526001602052908220805460ff191690557f4c910b69fe65a61f7531b9c5042b2329ca7179c77290aa7e2eb3afa3c8511fd38280a280f35b82346105ce57806003193601126105ce5761058d610794565b80546001600160a01b03198116825581906001600160a01b03167f8be0079c531659141344cd1fd0a4f28419497f9722a3daafe3b4186f6b6457e08280a380f35b80fd5b5082346102a25760203660031901126102a2576105ec610763565b6105f4610794565b6001600160a01b0316918215610641575081835260016020528220600160ff198254161790557f784c8f4dbf0ffedd6e72c76501c545a70f8b203b30a26ce542bf92ba87c248a48280a280f35b905163e6c4247b60e01b8152fd5b8284346102165760203660031901126102165760209160ff9082906001600160a01b0361067a610763565b1681526001855220541690519015158152f35b82843461021657816003193601126102165760055490516001600160a01b039091168152602090f35b82843461021657816003193601126102165760035490516001600160a01b039091168152602090f35b508290346102a257826003193601126102a25760209250549051908152f35b5082346102a25760203660031901126102a25781359161071c610794565b6103e883116107555791602091817f45610d581145924dd7090a5017e5f2b1d6f42213bb2e95707ff86846bbfcb1ca945551908152a180f35b905163cd4e616760e01b8152fd5b600435906001600160a01b038216820361077957565b600080fd5b602435906001600160a01b038216820361077957565b6000546001600160a01b031633036107a857565b60405163118cdaa760e01b8152336004820152602490fd5b60405163a9059cbb60e01b60009081526001600160a01b039384166004526024949094529260209060448180855af1600160005114811615610821575b836040521561080b57505050565b635274afe760e01b835216600482015260249150fd5b600181151661083757813b15153d1516166107fd565b833d6000823e3d90fdfea26469706673582212202c0842fe4ed9287cf2810b73ed10f5789be9a1632f23644e28682517dbc60bbc64736f6c63430008150033","opcodes":"PUSH1 0x80 CALLVALUE PUSH2 0x127 JUMPI PUSH2 0x9BA SWAP1 PUSH1 0x1F CODESIZE DUP4 SWAP1 SUB SWAP1 DUP2 ADD PUSH1 0x1F NOT AND DUP3 ADD SWAP1 PUSH1 0x1 PUSH1 0x1 PUSH1 0x40 SHL SUB DUP3 GT DUP4 DUP4 LT OR PUSH2 0x12C JUMPI DUP1 DUP4 SWAP2 PUSH1 0x40 SWAP6 DUP7 SWAP5 DUP6 MSTORE DUP4 CODECOPY DUP2 ADD SUB SLT PUSH2 0x127 JUMPI DUP1 MLOAD PUSH1 0x20 SWAP1 SWAP2 ADD MLOAD PUSH1 0x1 PUSH1 0x1 PUSH1 0xA0 SHL SUB DUP1 DUP3 AND SWAP3 SWAP1 SWAP2 DUP4 SWAP1 SUB PUSH2 0x127 JUMPI CALLER ISZERO PUSH2 0x10F JUMPI PUSH1 0x0 SLOAD SWAP2 PUSH1 0x1 DUP1 PUSH1 0xA0 SHL SUB NOT SWAP3 CALLER DUP5 DUP3 AND OR PUSH1 0x0 SSTORE DUP6 MLOAD SWAP2 CALLER SWAP2 AND PUSH32 0x8BE0079C531659141344CD1FD0A4F28419497F9722A3DAAFE3B4186F6B6457E0 PUSH1 0x0 DUP1 LOG3 PUSH1 0x1 PUSH32 0x9B779B17422D0DF92223018B32B4D1FA46E071723D6817E2486D003BECC55F00 SSTORE PUSH2 0x3E8 DUP3 GT PUSH2 0x100 JUMPI POP DUP3 ISZERO PUSH2 0xEF JUMPI PUSH1 0x4 SSTORE PUSH1 0x5 SLOAD AND OR PUSH1 0x5 SSTORE MLOAD PUSH2 0x877 SWAP1 DUP2 PUSH2 0x143 DUP3 CODECOPY RETURN JUMPDEST DUP4 MLOAD PUSH4 0xE6C4247B PUSH1 0xE0 SHL DUP2 MSTORE PUSH1 0x4 SWAP1 REVERT JUMPDEST PUSH4 0xCD4E6167 PUSH1 0xE0 SHL DUP2 MSTORE PUSH1 0x4 SWAP1 REVERT JUMPDEST DUP4 MLOAD PUSH4 0x1E4FBDF7 PUSH1 0xE0 SHL DUP2 MSTORE PUSH1 0x0 PUSH1 0x4 DUP3 ADD MSTORE PUSH1 0x24 SWAP1 REVERT JUMPDEST PUSH1 0x0 DUP1 REVERT JUMPDEST PUSH4 0x4E487B71 PUSH1 0xE0 SHL PUSH1 0x0 MSTORE PUSH1 0x41 PUSH1 0x4 MSTORE PUSH1 0x24 PUSH1 0x0 REVERT INVALID PUSH1 0x40 PUSH1 0x80 DUP2 MSTORE PUSH1 0x4 DUP1 CALLDATASIZE LT ISZERO PUSH2 0x14 JUMPI PUSH1 0x0 DUP1 REVERT JUMPDEST PUSH1 0x0 SWAP1 DUP2 CALLDATALOAD PUSH1 0xE0 SHR DUP1 PUSH4 0x12E8E2C3 EQ PUSH2 0x6FE JUMPI DUP1 PUSH4 0x22DCD13E EQ PUSH2 0x6DF JUMPI DUP1 PUSH4 0x3B70AEBC EQ PUSH2 0x6B6 JUMPI DUP1 PUSH4 0x46904840 EQ PUSH2 0x68D JUMPI DUP1 PUSH4 0x68C4AC26 EQ PUSH2 0x64F JUMPI DUP1 PUSH4 0x6D69FCAF EQ PUSH2 0x5D1 JUMPI DUP1 PUSH4 0x715018A6 EQ PUSH2 0x574 JUMPI DUP1 PUSH4 0x76319190 EQ PUSH2 0x50E JUMPI DUP1 PUSH4 0x8C57C521 EQ PUSH2 0x4BD JUMPI DUP1 PUSH4 0x8DA5CB5B EQ PUSH2 0x495 JUMPI DUP1 PUSH4 0xB86E321C EQ PUSH2 0x395 JUMPI DUP1 PUSH4 0xC23F001F EQ PUSH2 0x34C JUMPI DUP1 PUSH4 0xD4FAC45D EQ PUSH2 0x304 JUMPI DUP1 PUSH4 0xE74B981B EQ PUSH2 0x2A6 JUMPI DUP1 PUSH4 0xF2FDE38B EQ PUSH2 0x21A JUMPI PUSH4 0xF8252373 EQ PUSH2 0xD0 JUMPI PUSH1 0x0 DUP1 REVERT JUMPDEST CALLVALUE PUSH2 0x216 JUMPI PUSH1 0x80 CALLDATASIZE PUSH1 0x3 NOT ADD SLT PUSH2 0x216 JUMPI PUSH2 0xE9 PUSH2 0x77E JUMP JUMPDEST PUSH1 0x1 PUSH1 0x1 PUSH1 0xA0 SHL SUB SWAP4 PUSH1 0x44 CALLDATALOAD DUP6 DUP2 AND SWAP4 SWAP2 SWAP1 DUP5 SWAP1 SUB PUSH2 0x212 JUMPI PUSH1 0x64 CALLDATALOAD SWAP2 DUP7 PUSH1 0x3 SLOAD AND CALLER SUB PUSH2 0x204 JUMPI DUP5 DUP7 MSTORE PUSH1 0x1 PUSH1 0x20 MSTORE PUSH1 0xFF DUP3 DUP8 KECCAK256 SLOAD AND ISZERO PUSH2 0x1F6 JUMPI DUP3 ISZERO PUSH2 0x1E8 JUMPI DUP1 SLOAD DUP1 DUP5 MUL SWAP1 DUP5 DUP3 DIV SUB PUSH2 0x1D5 JUMPI PUSH2 0x2710 SWAP1 DIV DUP1 DUP5 SUB SWAP4 DUP5 GT PUSH2 0x1D5 JUMPI DUP6 DUP8 MSTORE PUSH1 0x2 PUSH1 0x20 MSTORE DUP8 DUP4 DUP9 KECCAK256 SWAP6 AND SWAP5 DUP6 DUP9 MSTORE PUSH1 0x20 MSTORE DUP3 DUP8 KECCAK256 SWAP8 DUP9 SLOAD DUP6 DUP2 ADD DUP1 SWAP2 GT PUSH2 0x1C2 JUMPI PUSH32 0x2F28480815E7E66ABE3E3D8C1E0477BF03E7DD296FECD76E7420076E2A6887E3 SWAP6 SWAP7 SWAP8 SWAP9 SWAP10 SSTORE DUP2 DUP1 PUSH2 0x1AD JUMPI JUMPDEST POP POP DUP3 MLOAD SWAP5 DUP6 MSTORE PUSH1 0x20 DUP6 ADD MSTORE CALLDATALOAD SWAP3 LOG4 DUP1 RETURN JUMPDEST PUSH2 0x1BB SWAP2 PUSH1 0x5 SLOAD AND DUP10 PUSH2 0x7C0 JUMP JUMPDEST CODESIZE DUP2 PUSH2 0x19B JUMP JUMPDEST PUSH4 0x4E487B71 PUSH1 0xE0 SHL DUP10 MSTORE PUSH1 0x11 DUP5 MSTORE PUSH1 0x24 DUP10 REVERT JUMPDEST PUSH4 0x4E487B71 PUSH1 0xE0 SHL DUP8 MSTORE PUSH1 0x11 DUP3 MSTORE PUSH1 0x24 DUP8 REVERT JUMPDEST SWAP1 MLOAD PUSH4 0x1F2A2005 PUSH1 0xE0 SHL DUP2 MSTORE REVERT JUMPDEST SWAP1 MLOAD PUSH4 0x350B9441 PUSH1 0xE1 SHL DUP2 MSTORE REVERT JUMPDEST SWAP1 MLOAD PUSH4 0xD35BCFCB PUSH1 0xE0 SHL DUP2 MSTORE REVERT JUMPDEST DUP5 DUP1 REVERT JUMPDEST POP DUP1 REVERT JUMPDEST POP DUP3 SWAP1 CALLVALUE PUSH2 0x2A2 JUMPI PUSH1 0x20 CALLDATASIZE PUSH1 0x3 NOT ADD SLT PUSH2 0x2A2 JUMPI PUSH2 0x236 PUSH2 0x763 JUMP JUMPDEST SWAP1 PUSH2 0x23F PUSH2 0x794 JUMP JUMPDEST PUSH1 0x1 PUSH1 0x1 PUSH1 0xA0 SHL SUB SWAP2 DUP3 AND SWAP3 DUP4 ISZERO PUSH2 0x28C JUMPI POP POP DUP3 SLOAD PUSH1 0x1 PUSH1 0x1 PUSH1 0xA0 SHL SUB NOT DUP2 AND DUP4 OR DUP5 SSTORE AND PUSH32 0x8BE0079C531659141344CD1FD0A4F28419497F9722A3DAAFE3B4186F6B6457E0 DUP4 DUP1 LOG3 DUP1 RETURN JUMPDEST MLOAD PUSH4 0x1E4FBDF7 PUSH1 0xE0 SHL DUP2 MSTORE SWAP1 DUP2 ADD DUP5 SWAP1 MSTORE PUSH1 0x24 SWAP1 REVERT JUMPDEST DUP3 DUP1 REVERT JUMPDEST POP DUP3 SWAP1 CALLVALUE PUSH2 0x2A2 JUMPI PUSH1 0x20 CALLDATASIZE PUSH1 0x3 NOT ADD SLT PUSH2 0x2A2 JUMPI PUSH2 0x2C2 PUSH2 0x763 JUMP JUMPDEST PUSH2 0x2CA PUSH2 0x794 JUMP JUMPDEST PUSH1 0x1 PUSH1 0x1 PUSH1 0xA0 SHL SUB AND SWAP2 DUP3 ISZERO PUSH2 0x2F7 JUMPI POP POP PUSH12 0xFFFFFFFFFFFFFFFFFFFFFFFF PUSH1 0xA0 SHL PUSH1 0x5 SLOAD AND OR PUSH1 0x5 SSTORE DUP1 RETURN JUMPDEST MLOAD PUSH4 0xE6C4247B PUSH1 0xE0 SHL DUP2 MSTORE REVERT JUMPDEST DUP3 DUP5 CALLVALUE PUSH2 0x216 JUMPI DUP1 PUSH1 0x3 NOT CALLDATASIZE ADD SLT PUSH2 0x216 JUMPI DUP1 PUSH1 0x20 SWAP3 PUSH2 0x322 PUSH2 0x763 JUMP JUMPDEST PUSH1 0x1 PUSH1 0x1 PUSH1 0xA0 SHL SUB DUP1 PUSH2 0x333 PUSH2 0x77E JUMP JUMPDEST AND DUP4 MSTORE PUSH1 0x2 DUP7 MSTORE DUP4 DUP4 KECCAK256 SWAP2 AND DUP3 MSTORE DUP5 MSTORE KECCAK256 SLOAD SWAP1 MLOAD SWAP1 DUP2 MSTORE RETURN JUMPDEST DUP3 DUP5 CALLVALUE PUSH2 0x216 JUMPI DUP1 PUSH1 0x3 NOT CALLDATASIZE ADD SLT PUSH2 0x216 JUMPI DUP1 PUSH1 0x20 SWAP3 PUSH2 0x36A PUSH2 0x763 JUMP JUMPDEST PUSH2 0x372 PUSH2 0x77E JUMP JUMPDEST PUSH1 0x1 PUSH1 0x1 PUSH1 0xA0 SHL SUB SWAP2 DUP3 AND DUP4 MSTORE PUSH1 0x2 DUP7 MSTORE DUP4 DUP4 KECCAK256 SWAP2 AND DUP3 MSTORE DUP5 MSTORE KECCAK256 SLOAD SWAP1 MLOAD SWAP1 DUP2 MSTORE RETURN JUMPDEST POP CALLVALUE PUSH2 0x216 JUMPI PUSH1 0x20 SWAP3 DUP4 PUSH1 0x3 NOT CALLDATASIZE ADD SLT PUSH2 0x2A2 JUMPI PUSH2 0x3B1 PUSH2 0x763 JUMP JUMPDEST SWAP2 PUSH32 0x9B779B17422D0DF92223018B32B4D1FA46E071723D6817E2486D003BECC55F00 SWAP3 PUSH1 0x2 DUP5 SLOAD EQ PUSH2 0x486 JUMPI PUSH1 0x2 DUP5 SSTORE PUSH1 0x1 PUSH1 0x1 PUSH1 0xA0 SHL SUB AND DUP1 DUP6 MSTORE PUSH1 0x1 DUP7 MSTORE DUP3 DUP6 KECCAK256 SLOAD SWAP1 SWAP3 SWAP1 PUSH1 0xFF AND ISZERO PUSH2 0x479 JUMPI DUP3 DUP6 MSTORE PUSH1 0x2 DUP7 MSTORE DUP1 DUP6 KECCAK256 CALLER DUP7 MSTORE DUP7 MSTORE DUP1 DUP6 KECCAK256 SLOAD SWAP2 DUP3 ISZERO PUSH2 0x46B JUMPI POP DUP5 SWAP6 PUSH32 0xE06FAB35F3C220725C11D544884AFF93EBF67222C8310C487C71F27C844593E8 SWAP2 DUP5 PUSH1 0x1 SWAP8 MSTORE PUSH1 0x2 DUP3 MSTORE DUP1 DUP9 KECCAK256 CALLER DUP10 MSTORE DUP3 MSTORE DUP8 DUP2 DUP2 KECCAK256 SSTORE PUSH2 0x460 DUP5 CALLER DUP8 PUSH2 0x7C0 JUMP JUMPDEST MLOAD SWAP3 DUP4 MSTORE CALLER SWAP3 LOG3 SSTORE DUP1 RETURN JUMPDEST SWAP1 MLOAD PUSH4 0x1E9ACF17 PUSH1 0xE3 SHL DUP2 MSTORE REVERT JUMPDEST MLOAD PUSH4 0x350B9441 PUSH1 0xE1 SHL DUP2 MSTORE REVERT JUMPDEST POP SWAP1 MLOAD PUSH4 0x3EE5AEB5 PUSH1 0xE0 SHL DUP2 MSTORE REVERT JUMPDEST DUP3 DUP5 CALLVALUE PUSH2 0x216 JUMPI DUP2 PUSH1 0x3 NOT CALLDATASIZE ADD SLT PUSH2 0x216 JUMPI SWAP1 SLOAD SWAP1 MLOAD PUSH1 0x1 PUSH1 0x1 PUSH1 0xA0 SHL SUB SWAP1 SWAP2 AND DUP2 MSTORE PUSH1 0x20 SWAP1 RETURN JUMPDEST POP DUP3 SWAP1 CALLVALUE PUSH2 0x2A2 JUMPI PUSH1 0x20 CALLDATASIZE PUSH1 0x3 NOT ADD SLT PUSH2 0x2A2 JUMPI PUSH2 0x4D9 PUSH2 0x763 JUMP JUMPDEST PUSH2 0x4E1 PUSH2 0x794 JUMP JUMPDEST PUSH1 0x1 PUSH1 0x1 PUSH1 0xA0 SHL SUB AND SWAP2 DUP3 ISZERO PUSH2 0x2F7 JUMPI POP POP PUSH12 0xFFFFFFFFFFFFFFFFFFFFFFFF PUSH1 0xA0 SHL PUSH1 0x3 SLOAD AND OR PUSH1 0x3 SSTORE DUP1 RETURN JUMPDEST DUP3 DUP5 CALLVALUE PUSH2 0x216 JUMPI PUSH1 0x20 CALLDATASIZE PUSH1 0x3 NOT ADD SLT PUSH2 0x216 JUMPI PUSH2 0x529 PUSH2 0x763 JUMP JUMPDEST PUSH2 0x531 PUSH2 0x794 JUMP JUMPDEST PUSH1 0x1 PUSH1 0x1 PUSH1 0xA0 SHL SUB AND DUP1 DUP4 MSTORE PUSH1 0x1 PUSH1 0x20 MSTORE SWAP1 DUP3 KECCAK256 DUP1 SLOAD PUSH1 0xFF NOT AND SWAP1 SSTORE PUSH32 0x4C910B69FE65A61F7531B9C5042B2329CA7179C77290AA7E2EB3AFA3C8511FD3 DUP3 DUP1 LOG2 DUP1 RETURN JUMPDEST DUP3 CALLVALUE PUSH2 0x5CE JUMPI DUP1 PUSH1 0x3 NOT CALLDATASIZE ADD SLT PUSH2 0x5CE JUMPI PUSH2 0x58D PUSH2 0x794 JUMP JUMPDEST DUP1 SLOAD PUSH1 0x1 PUSH1 0x1 PUSH1 0xA0 SHL SUB NOT DUP2 AND DUP3 SSTORE DUP2 SWAP1 PUSH1 0x1 PUSH1 0x1 PUSH1 0xA0 SHL SUB AND PUSH32 0x8BE0079C531659141344CD1FD0A4F28419497F9722A3DAAFE3B4186F6B6457E0 DUP3 DUP1 LOG3 DUP1 RETURN JUMPDEST DUP1 REVERT JUMPDEST POP DUP3 CALLVALUE PUSH2 0x2A2 JUMPI PUSH1 0x20 CALLDATASIZE PUSH1 0x3 NOT ADD SLT PUSH2 0x2A2 JUMPI PUSH2 0x5EC PUSH2 0x763 JUMP JUMPDEST PUSH2 0x5F4 PUSH2 0x794 JUMP JUMPDEST PUSH1 0x1 PUSH1 0x1 PUSH1 0xA0 SHL SUB AND SWAP2 DUP3 ISZERO PUSH2 0x641 JUMPI POP DUP2 DUP4 MSTORE PUSH1 0x1 PUSH1 0x20 MSTORE DUP3 KECCAK256 PUSH1 0x1 PUSH1 0xFF NOT DUP3 SLOAD AND OR SWAP1 SSTORE PUSH32 0x784C8F4DBF0FFEDD6E72C76501C545A70F8B203B30A26CE542BF92BA87C248A4 DUP3 DUP1 LOG2 DUP1 RETURN JUMPDEST SWAP1 MLOAD PUSH4 0xE6C4247B PUSH1 0xE0 SHL DUP2 MSTORE REVERT JUMPDEST DUP3 DUP5 CALLVALUE PUSH2 0x216 JUMPI PUSH1 0x20 CALLDATASIZE PUSH1 0x3 NOT ADD SLT PUSH2 0x216 JUMPI PUSH1 0x20 SWAP2 PUSH1 0xFF SWAP1 DUP3 SWAP1 PUSH1 0x1 PUSH1 0x1 PUSH1 0xA0 SHL SUB PUSH2 0x67A PUSH2 0x763 JUMP JUMPDEST AND DUP2 MSTORE PUSH1 0x1 DUP6 MSTORE KECCAK256 SLOAD AND SWAP1 MLOAD SWAP1 ISZERO ISZERO DUP2 MSTORE RETURN JUMPDEST DUP3 DUP5 CALLVALUE PUSH2 0x216 JUMPI DUP2 PUSH1 0x3 NOT CALLDATASIZE ADD SLT PUSH2 0x216 JUMPI PUSH1 0x5 SLOAD SWAP1 MLOAD PUSH1 0x1 PUSH1 0x1 PUSH1 0xA0 SHL SUB SWAP1 SWAP2 AND DUP2 MSTORE PUSH1 0x20 SWAP1 RETURN JUMPDEST DUP3 DUP5 CALLVALUE PUSH2 0x216 JUMPI DUP2 PUSH1 0x3 NOT CALLDATASIZE ADD SLT PUSH2 0x216 JUMPI PUSH1 0x3 SLOAD SWAP1 MLOAD PUSH1 0x1 PUSH1 0x1 PUSH1 0xA0 SHL SUB SWAP1 SWAP2 AND DUP2 MSTORE PUSH1 0x20 SWAP1 RETURN JUMPDEST POP DUP3 SWAP1 CALLVALUE PUSH2 0x2A2 JUMPI DUP3 PUSH1 0x3 NOT CALLDATASIZE ADD SLT PUSH2 0x2A2 JUMPI PUSH1 0x20 SWAP3 POP SLOAD SWAP1 MLOAD SWAP1 DUP2 MSTORE RETURN JUMPDEST POP DUP3 CALLVALUE PUSH2 0x2A2 JUMPI PUSH1 0x20 CALLDATASIZE PUSH1 0x3 NOT ADD SLT PUSH2 0x2A2 JUMPI DUP2 CALLDATALOAD SWAP2 PUSH2 0x71C PUSH2 0x794 JUMP JUMPDEST PUSH2 0x3E8 DUP4 GT PUSH2 0x755 JUMPI SWAP2 PUSH1 0x20 SWAP2 DUP2 PUSH32 0x45610D581145924DD7090A5017E5F2B1D6F42213BB2E95707FF86846BBFCB1CA SWAP5 SSTORE MLOAD SWAP1 DUP2 MSTORE LOG1 DUP1 RETURN JUMPDEST SWAP1 MLOAD PUSH4 0xCD4E6167 PUSH1 0xE0 SHL DUP2 MSTORE REVERT JUMPDEST PUSH1 0x4 CALLDATALOAD SWAP1 PUSH1 0x1 PUSH1 0x1 PUSH1 0xA0 SHL SUB DUP3 AND DUP3 SUB PUSH2 0x779 JUMPI JUMP JUMPDEST PUSH1 0x0 DUP1 REVERT JUMPDEST PUSH1 0x24 CALLDATALOAD SWAP1 PUSH1 0x1 PUSH1 0x1 PUSH1 0xA0 SHL SUB DUP3 AND DUP3 SUB PUSH2 0x779 JUMPI JUMP JUMPDEST PUSH1 0x0 SLOAD PUSH1 0x1 PUSH1 0x1 PUSH1 0xA0 SHL SUB AND CALLER SUB PUSH2 0x7A8 JUMPI JUMP JUMPDEST PUSH1 0x40 MLOAD PUSH4 0x118CDAA7 PUSH1 0xE0 SHL DUP2 MSTORE CALLER PUSH1 0x4 DUP3 ADD MSTORE PUSH1 0x24 SWAP1 REVERT JUMPDEST PUSH1 0x40 MLOAD PUSH4 0xA9059CBB PUSH1 0xE0 SHL PUSH1 0x0 SWAP1 DUP2 MSTORE PUSH1 0x1 PUSH1 0x1 PUSH1 0xA0 SHL SUB SWAP4 DUP5 AND PUSH1 0x4 MSTORE PUSH1 0x24 SWAP5 SWAP1 SWAP5 MSTORE SWAP3 PUSH1 0x20 SWAP1 PUSH1 0x44 DUP2 DUP1 DUP6 GAS CALL PUSH1 0x1 PUSH1 0x0 MLOAD EQ DUP2 AND ISZERO PUSH2 0x821 JUMPI JUMPDEST DUP4 PUSH1 0x40 MSTORE ISZERO PUSH2 0x80B JUMPI POP POP POP JUMP JUMPDEST PUSH4 0x5274AFE7 PUSH1 0xE0 SHL DUP4 MSTORE AND PUSH1 0x4 DUP3 ADD MSTORE PUSH1 0x24 SWAP2 POP REVERT JUMPDEST PUSH1 0x1 DUP2 ISZERO AND PUSH2 0x837 JUMPI DUP2 EXTCODESIZE ISZERO ISZERO RETURNDATASIZE ISZERO AND AND PUSH2 0x7FD JUMP JUMPDEST DUP4 RETURNDATASIZE PUSH1 0x0 DUP3 RETURNDATACOPY RETURNDATASIZE SWAP1 REVERT INVALID LOG2 PUSH5 0x6970667358 0x22 SLT KECCAK256 0x2C ADDMOD TIMESTAMP INVALID 0x4E 0xD9 0x28 PUSH29 0xF2810B73ED10F5789BE9A1632F23644E28682517DBC60BBC64736F6C63 NUMBER STOP ADDMOD ISZERO STOP CALLER "},"methodIdentifiers":{"addSupportedToken(address)":"6d69fcaf","balances(address,address)":"c23f001f","distributeReward(uint256,address,address,uint256)":"f8252373","feeRecipient()":"46904840","getBalance(address,address)":"d4fac45d","owner()":"8da5cb5b","platformFeeBps()":"22dcd13e","removeSupportedToken(address)":"76319190","renounceOwnership()":"715018a6","setFeeRecipient(address)":"e74b981b","setPlatformFee(uint256)":"12e8e2c3","setTaskContract(address)":"8c57c521","supportedTokens(address)":"68c4ac26","taskContract()":"3b70aebc","transferOwnership(address)":"f2fde38b","withdrawReward(address)":"b86e321c"}}}}}